S0120000636C6F636B5F746573742E73726563E7
S1134000E03F0010A1420000F5420000F54200002C
S1134010F5420000F5420000F542000000000000F7
S1134020000000000000000000000000F542000055
S1134030F542000000000000F5420000F5420000D7
S1134040F5420000F5420000F5420000F542000090
S1134050F5420000F5420000F5420000F542000080
S1134060F5420000F5420000F5420000F542000070
S1134070F5420000F5420000F5420000F542000060
S1134080F5420000F5420000F5420000F542000050
S1134090F5420000F5420000F5420000F542000040
S11340A0F5420000F5420000F5420000F542000030
S11340B0F5420000F5420000F5420000F542000020
S11340C0F5420000F5420000F542000010B5054C31
S11340D0237833B9044B13B10448AFF300800123B0
S11340E0237010BD480400100000000010460000BA
S11340F0084B10B51BB108480849AFF300800848C5
S1134100036803B910BD074B002BFBD0BDE810407A
S1134110184700BF00000000104600004C040010C7
S1134120480400100000000070B50F4E0F4D761BC0
S1134130B61018BF002405D0013455F8043B984745
S1134140A642F9D10A4E0B4D00F062FA761BB61066
S113415018BF002406D0013455F8043B9847A64202
S1134160F9D170BD70BD00BF1C4600001C460000A4
S1134170244600001C460000024B13B1024800F024
S113418005B8704700000000994100000146002076
S11341900246034600F016B838B5084B084DED1A30
S11341A0AC1018BFED1805D0013C55F8043D9847F4
S11341B0002CF9D1BDE8384000F034BA3046000094
S11341C0344600002DE9F047254C0646256888460C
S11341D0D5F8484192469946C4B360681F2817DC55
S11341E0411C76B104EB8003C3F888A0D4F888514D
S11341F0012282401543022EC4F88851C3F8089165
S11342001ED0831C6160002044F82380BDE8F08741
S1134210144B03B34FF4C870AFF300800446D0B11D
S1134220D5F84831002784E888003846C5F8484165
S11342300121C4F88871C4F88C71002EE1D0D1E753
S1134240D4F88C311A43C4F88C21DAE705F5A67446
S1134250C5F84841C1E74FF0FF30BDE8F08700BF23
S11342600C4600000000000008B50B4C00F08AF872
S11342704FF48073236000F0DFF81023236000F014
S113428025F902252846256000F04CF8034B284602
S11342901D6000F047F8F4E738C009203CC009204D
S11342A008B50D4A0D4B0E498B4204D252F8041F37
S11342B043F8041BF7E70B4B0B4A934203D200224B
S11342C043F8042BF8E7FFF72FFF084B084A1A605E
S11342D0FFF7CAFFFEE700BF3446000020000010CD
S11342E048040010480400106C04001008ED00E0BD
S11342F000400000FEE70000830803EBD00303EB5B
S1134300901303EBD01303EB902303EBD020044B67
S113431058605A68013A5A60002AFAD1704700BFBF
S113432064040010014B5843FFF7E6BF40420F00FE
S1134330104A0023136053609360D3601361D36108
S1134340536293620C4A1360136213641366C2F8D7
S113435080300A4A136053609360D3601361D36161
S11343605362074A1360136213641366C2F8803001
S1134370704700BF00C0024000C0092040C0024096
S113438014C0092008B5FFF7D3FF4CF21271094A93
S113439000231360116240F2B11111644FF04051D7
S11343A01366C2F880105361536353655367C2F8B0
S11343B0943008BD00C00920094A136823F470131F
S11343C01360084A136823F0C0631360064B1A682D
S11343D042F420121A601A6822F4A0121A6070477C
S11343E004C0024000C0092044C0024030B5012589
S11343F0431E9D400D4B20220138C0B2FF281A6095
S11344000B4C0FD029424FF0010214BF22601A60F6
S113441010222260074C49002468A40748BF41F0D9
S11344200101E9E720232360084630BD5CC0092070
S113443058C0092054C0092010B50A4CFFF7BCFF2E
S11344404FF4007323603220FFF756FF064B2022FF
S11344501A604FF48043236018200449BDE81040DB
S1134460FFF7C4BF38C0092058C00920FF7F0D00E2
S113447008B540F0800109041820FFF7B7FF80B2A7
S113448008BD08B500210820FFF7B0FFC0B208BD81
S113449008B501460820FFF7A9FFC0B208BD08B55A
S11344A018200021FFF7A2FF0020FFF7E1FF0028FA
S11344B0FAD118204FF40041FFF798FF0020FFF7CE
S11344C0D7FFB0F5004FF9D108BD00002DE9F04148
S11344D044F23A023E4B3F4F1A603F4D00233B608B
S11344E02B683E4C23F002032B60AA232360552340
S11344F023603B4E33689801FBD42B6823F00103FF
S11345002B60AA23236055232360336813F0807340
S1134510FBD1DFF8F080C8F80030FFF7C0FF1820A7
S11345203049FFF763FF6020FFF7B2FFFFF7A9FFF1
S11345304106FBD52C4B20221A601A685206FCD582
S11345402A4B08221A6000225A6001233B60284A41
S1134550284BAA211A605522216022602B6843F05F
S113456001032B60216022603368DF01FCD5032343
S1134570C8F800302B6843F002032B60AA232360A1
S11345805523236033689D01FCD51B4B22221A60FE
S1134590AA2408335520194A1C601860116841F098
S11345A0010111601C60186015490868C405FBD539
S11345B008684005FCD5106840F002001060AA228B
S11345C01A6055221A600B689B05FCD5BDE8F08182
S11345D000C00F400CC10F4080C00F408CC00F4082
S11345E088C00F4070150800A0C10F40A8C10F403B
S11345F01800010084C00F40A4C00F40A0C00F40A9
S1134600A8C00F4004C10F40430000002000001068
S1134610F8B500BFF8BC08BC9E467047794100005D
S1134620F1400000F8B500BFF8BC08BC9E467047D6
S10B4630CD4000000000000071
S1134638000000000C03001074030010DC030010D9
S1134648000000000000000000000000000000005E
S1134658000000000000000000000000000000004E
S113466800000000084600000000000000000000F0
S1134678000000000000000000000000000000002E
S1134688000000000000000000000000000000001E
S1134698000000000000000000000000000000000E
S11346A800000000000000000000000000000000FE
S11346B800000000000000000000000000000000EE
S11346C800000000000000000000000000000000DE
S11346D800000000000000000100000000000000CD
S11346E80E33CDAB34126DE6ECDE05000B00000092
S11346F800000000000000000000000000000000AE
S1134708000000000000000000000000000000009D
S1134718000000000000000000000000000000008D
S1134728000000000000000000000000000000007D
S90342A119
