S00E0000626C696E6B792E737265638D
S1134000E03F00109D420000F1420000F142000038
S1134010F1420000F1420000F14200000000000003
S1134020000000000000000000000000F142000059
S1134030F142000000000000F1420000F1420000E3
S1134040F1420000F1420000F1420000F1420000A0
S1134050F1420000F1420000F1420000F142000090
S1134060F1420000F1420000F1420000F142000080
S1134070F1420000F1420000F1420000F142000070
S1134080F1420000F1420000F1420000F142000060
S1134090F1420000F1420000F1420000F142000050
S11340A0F1420000F1420000F1420000F142000040
S11340B0F1420000F1420000F1420000F142000030
S11340C0F1420000F1420000F142000010B5054C3D
S11340D0237833B9044B13B10448AFF300800123B0
S11340E0237010BD4804001000000000BC43000011
S11340F0084B10B51BB108480849AFF300800848C5
S1134100036803B910BD074B002BFBD0BDE810407A
S1134110184700BF00000000BC4300004C0400101E
S1134120480400100000000070B50F4E0F4D761BC0
S1134130B61018BF002405D0013455F8043B984745
S1134140A642F9D10A4E0B4D00F038F9761BB61091
S113415018BF002406D0013455F8043B9847A64202
S1134160F9D170BD70BD00BFC8430000C843000052
S1134170D0430000C8430000024B13B1024800F0D2
S113418005B8704700000000994100000146002076
S11341900246034600F016B838B5084B084DED1A30
S11341A0AC1018BFED1805D0013C55F8043D9847F4
S11341B0002CF9D1BDE8384000F00AB9DC43000016
S11341C0E04300002DE9F047254C06462568884663
S11341D0D5F8484192469946C4B360681F2817DC55
S11341E0411C76B104EB8003C3F888A0D4F888514D
S11341F0012282401543022EC4F88851C3F8089165
S11342001ED0831C6160002044F82380BDE8F08741
S1134210144B03B34FF4C870AFF300800446D0B11D
S1134220D5F84831002784E888003846C5F8484165
S11342300121C4F88871C4F88C71002EE1D0D1E753
S1134240D4F88C311A43C4F88C21DAE705F5A67446
S1134250C5F84841C1E74FF0FF30BDE8F08700BF23
S1134260B84300000000000008B500F089F8094BCD
S113427002264FF4807510241E6001201D601C600E
S113428000F04EF8044B01201E601D601C6000F01D
S113429047F8ECE738C009203CC0092008B50D4AAE
S11342A00D4B0E498B4204D252F8041F43F8041BF1
S11342B0F7E70B4B0B4A934203D2002243F8042B3B
S11342C0F8E7FFF731FF084B084A1A60FFF7CCFF05
S11342D0FEE700BFDC43000020000010480400108B
S11342E0480400106C04001008ED00E000400000D9
S11342F0FEE70000830803EBD00303EB901303EB0A
S1134300D01303EB902303EBD020044B58605A687E
S1134310013A5A60002AFAD1704700BF64040010C1
S1134320014B5843FFF7E6BF40420F00104A0023F9
S1134330136053609360D3601361D36153629362DB
S11343400C4A1360136213641366C2F880300A4A7D
S1134350136053609360D3601361D3615362074A5F
S11343601360136213641366C2F88030704700BF91
S113437000C0024000C0092040C0024014C009200F
S113438008B5FFF7D3FF4CF21271094A00231360FA
S1134390116240F2B11111644FF040511366C2F83A
S11343A080105361536353655367C2F8943008BD5A
S11343B000C009204300000020000010F8B500BF31
S11343C0F8BC08BC9E46704779410000F1400000EB
S11343D0F8B500BFF8BC08BC9E467047CD4000004D
S11343E0000000000C03001074030010DC03001034
S11343F000000000000000000000000000000000B9
S113440000000000000000000000000000000000A8
S113441000000000B44300000000000000000000A1
S11344200000000000000000000000000000000088
S11344300000000000000000000000000000000078
S11344400000000000000000000000000000000068
S11344500000000000000000000000000000000058
S11344600000000000000000000000000000000048
S11344700000000000000000000000000000000038
S11344800000000000000000010000000000000027
S11344900E33CDAB34126DE6ECDE05000B000000EC
S11344A00000000000000000000000000000000008
S11344B000000000000000000000000000000000F8
S11344C000000000000000000000000000000000E8
S11344D000000000000000000000000000000000D8
S903429D1D
