S01000007573625F746573742E73726563AB
S1134000E03F0010154500006945000069450000C7
S11340106945000069450000694500000000000092
S113402000000000000000000000000069450000DE
S11340306945000000000000694500006945000072
S113404069450000694500006945000069450000B4
S113405069450000694500006945000069450000A4
S11340606945000069450000694500006945000094
S11340706945000069450000694500006945000084
S11340806945000069450000694500006945000074
S11340906945000069450000694500006945000064
S11340A001440000694500006945000069450000BD
S11340B06945000069450000694500006945000044
S11340C069450000694500006945000010B5054CCC
S11340D0237833B9044B13B10448AFF300800123B0
S11340E0237010BDC805001000000000DC50000063
S11340F0084B10B51BB108480849AFF300800848C5
S1134100036803B910BD074B002BFBD0BDE810407A
S1134110184700BF00000000DC500000CC05001070
S1134120C80500100000000070B50F4E0F4D761B3F
S1134130B61018BF002405D0013455F8043B984745
S1134140A642F9D10A4E0B4D00F0C8FF761BB610FB
S113415018BF002406D0013455F8043B9847A64202
S1134160F9D170BD70BD00BFE8500000E8500000F8
S1134170F0500000E8500000024B13B1024800F078
S113418005B8704700000000994100000146002076
S11341900246034600F016B838B5084B084DED1A30
S11341A0AC1018BFED1805D0013C55F8043D9847F4
S11341B0002CF9D1BDE8384000F09ABFFC50000053
S11341C0005100002DE9F047254C06462568884635
S11341D0D5F8484192469946C4B360681F2817DC55
S11341E0411C76B104EB8003C3F888A0D4F888514D
S11341F0012282401543022EC4F88851C3F8089165
S11342001ED0831C6160002044F82380BDE8F08741
S1134210144B03B34FF4C870AFF300800446D0B11D
S1134220D5F84831002784E888003846C5F8484165
S11342300121C4F88871C4F88C71002EE1D0D1E753
S1134240D4F88C311A43C4F88C21DAE705F5A67446
S1134250C5F84841C1E74FF0FF30BDE8F08700BF23
S1134260B05000000000000008B500F001FB00F0B1
S1134270C9F800F0B3F8431CFBD0064B1B6813F0DD
S1134280020F14BF044A054A0223136000F098F891
S1134290EFE700BF34C009203CC0092038C0092022
S11342A0C30642BF014B00221A607047E4050010A8
S11342B070B5064600240B49A1F10C00214400F01E
S11342C0FBF810B10134402CF5D1074D304605F10F
S11342D01001224600F044FC0123402C2B6018BF3F
S11342E02B6570BDF4050010E405001038B5084CCA
S11342F0256865B9201D00F0F7F840B125602565F3
S1134300236D23B9BDE838408220FFF7D1BF38BD03
S1134310E405001070B504460B4800F0F5F83F289A
S113432010DD20460949402200F04EFC0546074EA8
S11343300024AC4206DA0448315D00F0A3F808B169
S11343400134F6E770BD00BF38060010F405001014
S113435010B543780C46212B09D0222B0BD0202BEF
S11343600BD111680648072200F02AFE01E0044B35
S1134370136007232360012010BD002010BD00BF7F
S113438048040010034B00221A601B6D0BB9FFF7A1
S11343908FBF7047E405001010B5084C201D04F1D0
S11343A0600100F069F804F1540004F1E00100F048
S11343B063F8002323600123236510BDE405001086
S11343C010B504460448E1B200F05CF8002814BFBC
S11343D020464FF0FF3010BDE805001007B5074830
S11343E00DF1070100F068F810B19DF8070001E035
S11343F04FF0FF3003B05DF804FB00BF3806001037
S113440000F01EBC08B500F0D7FA134800F00AFD0E
S1134410124A0120124900F0C5FA8120002100F05F
S113442037FB82200F4900F033FB0F49052000F0D1
S11344302FFB0E4800F052FB0D4800F043FBFFF742
S1134440ABFF0C4A0120136843F080731360BDE88E
S1134450084000F054BB00BF500400104407001093
S1134460514300008543000015430000ED42000065
S1134470A142000000E100E000230360436081608A
S11344807047000010B502680A4B541C2340002BEF
S1134490B8BF03F1FF334468BCBF63F07F0301334B
S11344A0A3421FBF8468A1540360012008BF0020F9
S11344B010BD00BF7F00008090E80C009A420FD02E
S11344C08268D25C0A705A1C064B1340002BBEBF94
S11344D003F1FF3363F07F0301334360012070472E
S11344E0002070477F0000800368426880330548DD
S11344F09B1A18400028BEBF00F1FF3060F07F0017
S1134500013070477F00008008B5FFF7EDFFC0F170
S11345107F0008BD08B50D4A0D4B0E498B4204D2ED
S113452052F8041F43F8041BF7E70B4B0B4A934262
S113453003D2002243F8042BF8E7FFF7F5FD084BFC
S1134540084A1A60FFF790FEFEE700BFFC50000027
S113455020000010C8050010C8050010E80700106E
S113456008ED00E000400000FEE70000830803EBD4
S1134570D00303EB901303EBD01303EB902303EB73
S1134580D020044B58605A68013A5A60002AFAD184
S1134590704700BF4C070010104A0023136053609B
S11345A09360D3601361D361536293620C4A1360C6
S11345B0136213641366C2F880300A4A13605360AE
S11345C09360D3601361D3615362074A136013622B
S11345D013641366C2F88030704700BF00C0024005
S11345E000C0092040C0024014C0092008B5FFF7EC
S11345F0D3FF4CF21271094A00231360116240F296
S1134600B11111644FF040511366C2F88010536128
S1134610536353655367C2F8943008BD00C0092042
S1134620094A136823F470131360084A136823F0CB
S1134630C0631360064B1A6842F420121A601A68A9
S113464022F4A0121A60704704C0024000C009207E
S113465044C0024030B50125431E9D400D4B20222D
S11346600138C0B2FF281A600B4C0FD029424FF01A
S1134670010214BF22601A6010222260074C490014
S11346802468A40748BF41F00101E9E7202323601F
S1134690084630BD5CC0092058C0092054C0092018
S11346A010B50A4CFFF7BCFF4FF4007323603220AF
S11346B0FFF75CFF064B20221A604FF4804323600F
S11346C018200449BDE81040FFF7C4BF38C00920D2
S11346D058C00920FF7F0D0008B540F0800109048F
S11346E01820FFF7B7FF80B208BD08B500210820E5
S11346F0FFF7B0FFC0B208BD08B501460820FFF7B8
S1134700A9FFC0B208BD08B518200021FFF7A2FF19
S11347100020FFF7E1FF0028FAD118204FF40041F0
S1134720FFF798FF0020FFF7D7FFB0F5004FF9D14E
S113473008BD00002DE9F04144F23A023E4B3F4FE0
S11347401A603F4D00233B602B683E4C23F002036C
S11347502B60AA232360552323603B4E33689801C2
S1134760FBD42B6823F001032B60AA232360552379
S11347702360336813F08073FBD1DFF8F080C8F84E
S11347800030FFF7C0FF18203049FFF763FF6020B7
S1134790FFF7B2FFFFF7A9FF4106FBD52C4B202200
S11347A01A601A685206FCD52A4B08221A600022A5
S11347B05A6001233B60284A284BAA211A605522DB
S11347C0216022602B6843F001032B60216022608A
S11347D03368DF01FCD50323C8F800302B6843F0AD
S11347E002032B60AA2323605523236033689D01B1
S11347F0FCD51B4B22221A60AA2408335520194ADF
S11348001C601860116841F0010111601C6018609F
S113481015490868C405FBD508684005FCD510682F
S113482040F002001060AA221A6055221A600B6838
S11348309B05FCD5BDE8F08100C00F400CC10F40C2
S113484080C00F408CC00F4088C00F407015080016
S1134850A0C10F40A8C10F401800010084C00F4040
S1134860A4C00F40A0C00F40A8C00F4004C10F4017
S113487008B5FFF7BBFEFFF713FFBDE80840FFF7DD
S113488059BF000038B5084C802025686168402D68
S1134890A8BF40252A4600F063F963682B4463608F
S11348A023685D1B256038BD5407001037B5114BD4
S11348B01C7A1D46C4F34114022C0DD1002202A916
S11348C041F8042D03F1080003F11002043300F051
S11348D075FA08B101980AE005EB840463692BB109
S11348E0054800F10801021F984700E0184603B08C
S11348F030BD00BF540700105C07001010B500283D
S11349004AD101F0040303F0FF01254C0BB3082244
S113491004F1080100F058F9227AC2F3411304EBC0
S113492083035B6A6360E389236023610BB1D3096A
S113493034D0FFF7BBFF28B9BDE810408020012127
S113494000F002B9E28923699A42D4BF226023604D
S113495019E02268002A1ADD616800F035F90028A0
S1134960EADB6368034463602368181A2060A8B90B
S1134970237AC3F3411304EB83035B6A6360FFF799
S113498095FF0028D8D0BDE81040FFF77BBF0A464A
S1134990BDE8104000F018B98028F4D010BD00BF65
S11349A054070010024B03EB8000416142627047E0
S11349B0540700107047000010B50E4C00F0A6F923
S11349C00D4800F07FF82146002000F061F82146F0
S11349D0802000F05DF80020402100F03BF88020AA
S11349E0402100F037F800200449054AFFF7DAFFB8
S11349F0012010BDFD480000B5490000894E0000AB
S1134A0088070010034B1B6803408342FAD1024B12
S1134A101860704700C2005008C20050044B0004E4
S1134A2040F4A06030221A6098601020FFF7EABFBB
S1134A3008C2005010B50C46FFF7F0FF2404044BE5
S1134A4044F480741C601020BDE81040FFF7DABF06
S1134A5010C2005010B500F00F04C00940EA44042D
S1134A60094801230268A34013430360074B4FF432
S1134A7080701C605960FFF7C5FF44F040000021BE
S1134A80BDE81040FFF7D6BF44C2005048C20050F2
S1134A90094A00F00F0342F823100849C0090A68C4
S1134AA040EA4300012383401343054A0B60136823
S1134AB043F00403136070479007001034C20050A1
S1134AC004C20050034B044A1864136843F00803FB
S1134AD0136070479007001004C20050034B044A4F
S1134AE05864136843F00103136070479007001083
S1134AF004C2005040F08001D020FFF79BBF011C8E
S1134B0018BF0121FE20FFF795BF0146F320FFF7F0
S1134B1091BF000010B500F00F04C00940EA44043E
S1134B202046FFF77BFF2404054B44F400741C600B
S1134B302020FFF767FF034B1868C0B210BD00BF09
S1134B4010C2005014C2005000F00F03C00940EA24
S1134B504300003140F0400018BF0121FFF76ABF55
S1134B6038B5154600F00F03C00940EA4300134A64
S1134B709B0043F002031360114B1D601368043162
S1134B8013F0020310D011F8023C11F8014C1B047D
S1134B9043EA046311F8044C234311F8034C43EA39
S1134BA00423084C2360E9E7044A1360FFF736FF47
S1134BB0FA20FFF733FF284638BD00BF28C2005053
S1134BC024C200501CC2005070B5174C00F00F03F3
S1134BD02646C00940EA43009B0043F001032360DA
S1134BE0124B1B681D05FBD55C051AD500252C4608
S1134BF0C3F309039C420BD014F0030F04BF0C4D04
S1134C002D6811B1944238BF0D552D0A0134F1E7D6
S1134C1000233360FFF702FFF220FFF7FFFE204678
S1134C2070BD4FF0FF3070BD28C2005020C200504C
S1134C3018C20050011C18BF0121D820FFF7FABE8A
S1134C4038B5294B1C68E10711D501229A60274B1E
S1134C505D6C65B1F520FFF7E1FE254B254A202068
S1134C601A60FFF7CFFE244B1868C0B2A84722078A
S1134C7017D5224B08221A60FE20FFF7CFFE1C4BEB
S1134C801F4A20201A60FFF7BDFE1B4B1868C0B2F4
S1134C9010F01A0F05D0154B1B6C13B100F0150062
S1134CA0984763071ED5154B04221A600024154A41
S1134CB001231268A340134211D0134A2020136029
S1134CC0FFF7A0FE0C4B60101968084B53F8203016
S1134CD02BB140EAC410C0B201F01F01984701345F
S1134CE0202CE4D138BD00BF00C200509007001052
S1134CF010C200500002F50014C2005008C2005057
S1134D000002FE0030C2005038C2005008B5254AE7
S1134D10136823F4402343F48023136052F8043CC3
S1134D2023F0300343F0100342F8043C52F8043CEF
S1134D3023F0405343F0005342F8043C52F80C3C37
S1134D4023F0406343F0806342F80C3C52F80C3C7F
S1134D5023F0405343F0805342F80C3C02F55022B8
S1134D60B432136843F0004313600F4A136843F0EE
S1134D70120313600D4B1A689107FBD51A68D2060B
S1134D80FCD50B4B00200B4A18604FF0FF33136027
S1134D905062D0621363084B1860FFF7B6FE01201F
S1134DA008BD00BF10C00240F4CF0050F8CF00503F
S1134DB004C2005008C2005040C2005070B5164CE6
S1134DC02578002415B34678AE4221D10C60C688FC
S1134DD044888088042805D005281BD10F48186012
S1134DE0922002E00E48186028201060200A1468FF
S1134DF0000484420EDB1D680544201A1D60B04285
S1134E00D4BF106016600120086070BD284670BDD4
S1134E10204670BD012070BDD80700102405001085
S1134E20B4500000014B5860704700BFD807001011
S1134E30F0B5060A032EC4B2114808D1EE2C06D1EF
S1134E4010490078923108741960122312E0416805
S1134E50002501E001350144087880B14F78B7425C
S1134E60F9D1A542F6D1022E196006D1C8788B7803
S1134E7043EA002313600120F0BD0B78FAE7F0BD8C
S1134E80D8070010240500102DE9F0474B4E0546C5
S1134E90B3680F461446B04643B9287800F01F069D
S1134EA0012E55D006D3022E64D083E09847002803
S1134EB0F3D04AE06A782368092A7BD8DFE802F055
S1134EC0057A7A7A7A090D7A151C00221A705A70BA
S1134ED047E0A878FFF70EFE37E06888A9883A46CD
S1134EE02346BDE8F047FFF7A3BF98F80C20012044
S1134EF01A703860BDE8F087AE780EB930461FE00E
S1134F00FF27B946D8F804402378C3B16378042B4B
S1134F1006D0052B06D0022B0ED194F805900BE099
S1134F20E77809E0B14507D137B961792379A078E9
S1134F3043EA0121FFF78EFD23781C44E4E70120B6
S1134F40FFF778FE6B8888F80C300120BDE8F08705
S1134F506B7822680A2B06D00B2B07D053BB137037
S1134F605370022304E00023137016E06B880BBB1C
S1134F703B60EAE7D4F800806C78012C0FD002D3B0
S1134F80032C10D016E02879FFF7C4FD0023C0F3EA
S1134F90400088F8000088F801303E60D5E7698851
S1134FA041B9287903E06B8823B928790121FFF7F7
S1134FB0CBFDCAE70020BDE8F08700BFD80700108A
S1134FC0844641EA000313F0030349D1403A23D352
S1134FD00B6803604B6843608B688360CB68C36075
S1134FE00B6903614B6943618B698361CB69C3615D
S1134FF00B6A03624B6A43628B6A8362CB6AC36245
S11350000B6B03634B6B43638B6B8363CB6BC3632C
S113501040304031403ADBD230320BD30B6803606E
S11350204B6843608B688360CB68C3601030103179
S1135030103AF3D20C3205D351F8043B40F8043B48
S1135040043AF9D2043208D0D2071CBF11F8013B4C
S113505000F8013B01D30B8803806046704700BF12
S1135060082A13D38B07B1D010F00303AED0C3F1D9
S11350700403D21ADB071CBF11F8013B00F8013B03
S1135080A4D331F8023B20F8023B9FE7043AD9D37A
S1135090013A11F8013B00F8013BF9D20B78037097
S11350A04B7843708B7883706046704743000000F0
S11350B0200000102800000000010400010000008E
S11350C000000000000157494E5553420000000003
S11350D0000000000000000000000000F8B500BF60
S11350E0F8BC08BC9E46704779410000F1400000BE
S11350F0F8B500BFF8BC08BC9E467047CD40000020
S1135100000000000C03001074030010DC03001006
S1135110000000000000000000000000000000008B
S1135120000000000000000000000000000000007B
S113513000000000AC50000000000000000000006F
S1135140000000000000000000000000000000005B
S1135150000000000000000000000000000000004B
S1135160000000000000000000000000000000003B
S1135170000000000000000000000000000000002B
S1135180000000000000000000000000000000001B
S1135190000000000000000000000000000000000B
S11351A000000000000000000100000000000000FA
S11351B00E33CDAB34126DE6ECDE05000B000000BF
S11351C000000000000000000000000000000000DB
S11351D000000000000000000000000000000000CB
S11351E000000000000000000000000000000000BB
S11351F000000000000000000000000000000000AB
S1135520000000000000000000C2010000000800AC
S11355301201010102000040FFFF05000001010209
S1135540030109024300020100C032090400000102
S113555002020100052400100105240101010424B4
S1135560020205240600010705810308000A090454
S11355700100020A000000070505024000000705BB
S113558082024000000403090444036800740074A8
S11355900070003A002F002F007500620065007251
S11355A00074006F006F00740068002E0073006FB9
S11355B000750072006300650066006F007200678A
S11355C00065002E006E00650074002F0022035554
S11355D00062006500720074006F006F0074006860
S11355E0002000730065007200690061006C001205
S11355F00330003000300030003000300030003123
S11356000000000092000000000105000100880075
S11356100000070000002A004400650076006900CD
S11356206300650049006E00740065007200660046
S113563061006300650047005500490044007300A1
S11356400000500000007B003000310032003300C5
S113565034003500360037002D00300031003200B0
S113566033002D0034003500360037002D0038009B
S11356703900610062002D00300031003200330037
S1135680340035003600370038003900610062000C
S11356907D000000000012034D005300460054003A
S10B56A031003000300041002C
S9034515A2
