:10000000E03F001081110000D5110000D511000063
:10001000D5110000D5110000D5110000000000002E
:10002000000000000000000000000000D5110000EA
:10003000D511000000000000D5110000D51100000E
:10004000D511000045070000D5110000D5110000B2
:10005000D5110000D5110000D5110000D511000008
:10006000D5110000D5110000D5110000D5110000F8
:10007000D5110000D5110000D5110000D5110000E8
:10008000D5110000D5110000D5110000D5110000D8
:10009000D5110000D5110000D5110000D5110000C8
:1000A0007D110000D511000069070000D511000086
:1000B000D5110000D5110000D5110000D5110000A8
:1000C000D5110000D5110000D511000010B5054C68
:1000D000237833B9044B13B10448AFF300800123F4
:1000E000237010BDFC040010000000003C1F000045
:1000F000084B10B51BB108480849AFF30080084809
:10010000036803B910BD074B002BFBD0BDE81040BE
:10011000184700BF000000003C1F00000005001051
:10012000FC0400100000000070B50F4E0F4D761B50
:10013000B61018BF002405D0013455F8043B984789
:10014000A642F9D10A4E0B4D01F0F8FE761BB6100F
:1001500018BF002406D0013455F8043B9847A64246
:10016000F9D170BD70BD00BF481F0000481F0000DE
:10017000501F0000481F0000024B13B1024800F05E
:1001800005B87047000000009901000001460020FA
:100190000246034600F016B838B5084B084DED1A74
:1001A000AC1018BFED1805D0013C55F8043D984738
:1001B000002CF9D1BDE8384001F0CABE5C1F000038
:1001C000601F00002DE9F047254C0646256888464B
:1001D000D5F8484192469946C4B360681F2817DC99
:1001E000411C76B104EB8003C3F888A0D4F8885191
:1001F000012282401543022EC4F88851C3F80891A9
:100200001ED0831C6160002044F82380BDE8F08785
:10021000144B03B34FF4C870AFF300800446D0B161
:10022000D5F84831002784E888003846C5F84841A9
:100230000121C4F88871C4F88C71002EE1D0D1E797
:10024000D4F88C311A43C4F88C21DAE705F5A6748A
:10025000C5F84841C1E74FF0FF30BDE8F08700BF67
:10026000081E00000000000010B5244A244913684D
:10027000244C43F000531360234A00230B60A2F583
:100280009472C2F82831C2F84831C2F86831C2F815
:100290008831C2F8A831C2F8C831C2F8E831FF236A
:1002A00013609360194B1A4A1A485A601A4A1C6024
:1002B00014601A4CD860D06019489A6054609360FA
:1002C000026822F080620260164A01201060106805
:1002D000C007FCD51868144A1060586850609868C8
:1002E0009060DA68114B1A604DF20603104A0B60F9
:1002F000002313600F4A136010BD00BFC4C00F403D
:100300001041005008000340304100502C260010DE
:100310004126001032900088E4050010F8250010F6
:1003200000E100E030400050004100500C4100501E
:10033000E0050010742600100D4B0E494FF080525E
:100340001A600B6843F001030B6051F8203C43F046
:10035000020341F8203C08490B6843F001030B609D
:1003600006490B6843F080630B60054B1A607047C9
:1003700098C00920240003401041005000E100E033
:100380009CC0092070B58AB043780D461468212BB3
:1003900000F24381DFE813F02D01220041012F001C
:1003A000340037003C003F00410045004A00E600B1
:1003B000EF00140168005300A000A500A800AD00E4
:1003C000B500D800DC00E20008011101410117016D
:1003D000B700BE00C900C700CB003101904B418877
:1003E0001A680A441A601A68002A40F002814FF025
:1003F000FF321A60FDE08B4B1B68C3F34003A9E09A
:100400004288022315E0874B1B68C3F30013A1E069
:10041000428810230DE0834B67E042884FF48073DD
:1004200007E0804B1B68C3F3402393E042884FF4FE
:10043000007312B97C4A1360DDE07C4AFBE70AA82E
:10044000362340F8283D7A4B05A91B689847059B41
:100450002370069B6370069B1B0AA370BDF81A30BD
:10046000E3709DF81B306CE00AA83A2340F8283D61
:100470006F4B05A91B689847059B2370069B63700B
:10048000069B1B0AA370BDF81A30E3709DF81B3061
:100490002371079B6371079B1B0AA371BDF81E3074
:1004A000E3719DF81F302372089B6372089B1B0A3F
:1004B000A372BDF82230E3729DF823302373099BA9
:1004C0006373099B1B0AA373BDF82630E3739DF881
:1004D0002730237411238DE0564B1B68C3F3C013E0
:1004E00038E04288802307E0524B1B68C3F30023A7
:1004F00030E042884FF480730AB14F4A9BE74F4A7D
:1005000099E7032221E0052000F04CFF00F00700EE
:10051000207020E0418807297FD8052041F008019C
:1005200000F049FF67E005220FE006220DE0444B92
:100530001A7822705A7862709A78A270DA78E2702B
:100540001B792371052355E00022354B5A6052E098
:10055000334B9B682370012028605FE04288304B5A
:100560009A6048E0374B1A8822701B88C3F3072330
:10057000637002233EE0334B42881A8040F6DC026F
:10058000198889B2914240F6E92184BF1A8892B253
:100590001A801A8892B28A428FBF40F6EA22294A0C
:1005A000128892B21A8026E00AA8392340F8283D22
:1005B0001F4B05A91B6898471BE0234A234B1A6071
:1005C00000F0CEFF17E042886FF400641319B3F512
:1005D000806F22D283886FF400615918B1F5806F63
:1005E0001BD2934219D317494A808B800C4B0422AB
:1005F0005A6000232B60012010E0002323706370F9
:10060000134801F0D1FBC6B2A0703246E01C10497D
:10061000033601F053FB2E60EDE700200AB070BDF9
:100620001805001034C009203CC0092038C009203A
:10063000101F000054C0092058C009205CC00920C8
:100640003C2600104804001021BB05431C0000108C
:10065000011F0000024B0022DA601A61704700BFE0
:100660001805001070B5164CE168236901F07F0190
:1006700003F07F035A1C02F07F0291421ED0114A00
:10068000114915789B01CA18D570104D2D68556019
:100690000F4A022515600022865CD51801320D44F0
:1006A000322AAE73F8D10849227D0B445A700023D8
:1006B0002375236901200133236170BD002070BDC3
:1006C00018050010F4050010F8050010084000405F
:1006D00038C0092010B50D4CE368226903F07F0390
:1006E00002F07F02934204D1094B02221A600020DB
:1006F00010BD0849402201EB8311822001F0AEF8C1
:10070000E36801200133E36010BD00BF180500104D
:100710003CC00920F805001008B500F0D7FF0648D6
:1007200001F0FEF90549064A022000F0C5FF01204C
:1007300001F063F8002008BD0C1E000085030000D6
:100740002D0500104FF040221368DB0708D505493E
:100750000B780133DBB20B70136843F001031360B5
:10076000704700BFF40500100F4B1B68D90719D55F
:100770000E4B1B68DA0708D50D4A136843F00103D6
:1007800013600C4A1368013313600B4B1B68DB07C3
:1007900008D50A4A136843F001031360084A136836
:1007A00001331360704700BF004000500440005008
:1007B00008400050E00500100C4000501040005070
:1007C0007426001008B52C4B9A68EAB90D2047F63C
:1007D000FF7100F0F0FD122042F6223100F0EBFD37
:1007E000142041F24B3100F0E6FD202040F20111CF
:1007F00000F0E1FD214B02201988013989B200F097
:10080000DAFD032029211FE09B68012B32D10D2046
:1008100047F6FF7100F0CFFD122042F6223100F0C2
:10082000CAFD142041F24B3100F0C5FD202040F2FA
:10083000011100F0C0FD114B02201988013989B265
:1008400000F0B9FD0320402100F0B5FD00F0C6FD29
:100850004206FBD5612000F0C8FD00F0BFFD430754
:10086000FBD5622000F0C1FD054B80221A604FF4D9
:1008700080721A6008BD00BF1805001048040010FF
:1008800058C0092010B5274CA368BBB90D2047F606
:10089000FF7100F090FD122042F6223100F08BFD36
:1008A000142043F24B3100F086FD1F4B02201988C3
:1008B00089B200F080FD0320292119E0A368012BF3
:1008C0002FD10D2047F6FF7100F075FD122042F682
:1008D000223100F070FD142043F24B3100F06BFD2B
:1008E000114B0220198889B200F065FD03204021D8
:1008F00000F061FD00F072FD4206FBD5612000F0C2
:1009000074FD00F06BFD4307FBD5084B4FF480727C
:100910001A60632000F069FD054B80221A600323F2
:10092000A36210BD180500104804001038C009204B
:1009300058C009202DE9F04798B000AFA24B05241C
:100940009C62152387F84830002387F8493007F167
:1009500060003A2340F8583D9C4B07F11C011B688E
:10096000C7F804D098473A7F002A40F028813B6AB4
:100970000D20190E87F84A10190C87F84B1087F8CC
:100980004D30190A7B6A87F84C10190E87F84E1003
:10099000190C87F84F1087F85130190ABB6A87F88D
:1009A0005010190E87F85210190C87F8531087F859
:1009B0005530190AFB6A87F85410190E87F856103B
:1009C000190C87F85710190A87F8581087F859300A
:1009D00047F6FF71FF2387F85A2087F85B2087F8D6
:1009E0005C3087F85D307A4E00F0E5FC122042F66C
:1009F000223100F0E0FC142041F24B3100F0DBFC2E
:100A00003188022089B200F0D6FC2D204FF6AE11BD
:100A100000F0D1FC2C2041F2845100F0CCFC2046A7
:100A2000082100F0C8FC0320292100F0C4FC00F0DC
:100A3000D5FC4106FBD5612000F0D7FC00F0CEFCD0
:100A40004207FBD5634B4FF4807298461A60624AA6
:100A5000802111600024E5B2052045F0080100F076
:100A6000AAFC4FF0000987F85A5087F85B900E20D7
:100A700000F098FC00F01F000F28F8D14FF0000A9A
:100A800007F1480515F80A1070200AF1010A00F074
:100A9000A0FCBAF1160FF3D1632009F1010900F0AF
:100AA000A4FCB9F1100FE0D10134082CD3D10E20F1
:100AB00000F078FC00F01F000F28F8D1474C4FF4ED
:100AC00080732360642000F090FC00F087FC4307F3
:100AD000FBD431880220013989B200F06CFC00F0AF
:100AE0007DFC4006FBD5612000F07FFC00F076FC29
:100AF0004107FBD51023C8F800300E2000F052FC4F
:100B000000F01F000F28F8D1622000F06EFC00F00A
:100B100065FCC206FBD50223C8F800304FF000097F
:100B2000702000F04DFC07F1300606F8090009F1CD
:100B30000109B9F1160FF3D100F050FC030702D4FC
:100B400002232360D9E70E2000F02CFC00F01F00E8
:100B50000F28F8D1642000F048FC00F03FFC00F0C2
:100B6000040000F0FF020028F7D11D4B802119601E
:100B70001023236097F842001A4B0121587097F810
:100B8000430087F84910987097F84400D87097F898
:100B90004500187116F802E0A85C0132864518BFBE
:100BA0000021122AF6D1197002232360064B00227D
:100BB0009A625968052908BF5A60D7F804D060378F
:100BC000BD46BDE8F08700BF18050010101F0000EB
:100BD0004804001038C0092058C009203CC0092032
:100BE0005CC009203C2600102DE9F04387B05C4B27
:100BF00006229A620D2047F6FF7100F0DCFB594F88
:100C0000122042F6223100F0D6FB142041F24B3183
:100C100000F0D1FB39880220013989B200F0CBFB0A
:100C20002D204FF6AE1100F0C6FB2C2041F284516E
:100C300000F0C1FB0520082100F0BDFB03202921A5
:100C400000F0B9FB00F0CAFB4106FBD5612000F0C3
:100C5000CCFB00F0C3FB4207FBD5434C434EA146FF
:100C6000B046102333604FF4807323600223236067
:100C70003F4B80221A600E2000F094FB00F01F0012
:100C80000F28F8D10223C9F80030622000F0ADFB34
:100C900000F0A4FBC306FBD50223C8F800300025F2
:100CA000702000F08DFB0DF805000135162DF7D1F1
:100CB00000F094FB0507DED5022323601023236098
:100CC000642000F092FB00F089FB4007FBD400F0A9
:100CD00085FB4106FBD53988022089B200F06BFB09
:100CE00000F07CFB4206FBD5612000F07EFB4FF458
:100CF0008073336015238DF8003001238DF80130A7
:100D00000025EEB246F00801052000F054FB8DF8F6
:100D1000146000268DF815600E2000F043FB00F0F3
:100D20001F000F28F8D100271DF807107020013789
:100D300000F04FFB162FF7D16320013600F055FB72
:100D4000102EE7D10135082DDBD14FF480732360DD
:100D5000642000F04AFB00F041FB4307FBD449E765
:100D600018050010480400103CC0092038C00920B4
:100D700058C0092070B52A4B10221A60FFF76AFC90
:100D800000F08AFAFFF770FAFFF7D6FAFFF71AFDBC
:100D9000244C2368002B3ED0234D244E2B6813B9DE
:100DA0003368002BF8D02B68D90741BF204B9A68D5
:100DB000D968DA6048BF996033681BB1237D43F07E
:100DC000020323752B68A3B1174B1B68012B82BF4D
:100DD000237D43F001032375154BD868FFF742FCD0
:100DE00018B12368013B236003E0237D43F0040333
:100DF0002375822000F00CFD8206044601D4FFF723
:100E000069FC630601D4FFF765FC00F097FD002341
:100E10002B603360BCE7074B10221A6070BD00BF27
:100E200038C0092018050010E005001074260010D5
:100E3000480400103CC00920F0B58FB03D4B102293
:100E40001A60FFF707FC3C4B80221A600D2047F622
:100E5000FF7100F0B0FA122042F6223100F0ABFA36
:100E6000142041F24B3100F0A6FA202040F201118B
:100E700000F0A1FA0320292100F09DFA00F0AEFA5B
:100E80004406FBD500F0AAFA00F0040000F0FF04CD
:100E90000028F7D1294B5A68042A43D1284F7D886E
:100EA000BB88ADB29BB2AB42F4DB691E022089B2B3
:100EB00000F081FA612000F098FA00F08FFA400704
:100EC000FBD5622000F091FA04EB44060EAB1E4401
:100ED00006202B0A06F8343C06F8335C00F062FA70
:100EE0000134E4B2000A102C06F8320C11D101A82A
:100EF000FFF7B8FB822000F08BFC8106044601D48A
:100F0000FFF7E8FB620601D4FFF7E4FB00F016FDF3
:100F10000024642000F069FA00F060FA4307FBD473
:100F20000135BDE700229A62064B10221A600FB00D
:100F3000F0BD00BF38C0092058C0092018050010B6
:100F4000480400103CC0092070B58EB005466C46C0
:100F50001C4B03F13806224618685968083303C24F
:100F6000B3421446F7D1284605F12C0410F8011BB2
:100F70000DF101030DF1390213F8015C8D4217D117
:100F800006781D78AE4213D146785D78AE420FD117
:100F900086789D78AE420BD1C678DD78AE4207D117
:100FA00006791D79AE4203D146795D79AE4206D00D
:100FB00007339342E0D1A042D8D1002000E00120C5
:100FC0000EB070BDC91E0000F8B5002400F064F931
:100FD0002546FFF749F9FFF7AFF9FFF7F3FB1B4E83
:100FE0001B4F336813B93B68002BF8D03368DB071D
:100FF00041BF184B9A68D968DA6048BF99603B686E
:1010000013B1154B10221A603368CBB10F4B1B681C
:10101000012B82BF104B4FF480721A600D4BD868C1
:10102000FFF792FF28B10D4B02221A6001346425AC
:1010300006E025B9084B02221A602C4600E0013D6B
:101040000023132C33603B60C9DDF8BDE0050010C0
:1010500074260010480400103CC0092038C0092044
:101060002DE9F0413D4C3E4D00F0FCF84FF4807608
:10107000102202232660226023602E602A602B60EB
:101080002660226023602E602A602B6000F06EF9DB
:1010900026602E6000F0B0F9266004202E6000F07B
:1010A00081F9B0F5774F00D0FEE7266000F0BAF97D
:1010B000042610270220276000F0A4F82F600220E9
:1010C00000F0A0F8013EDFF89480F2D1254A264BCB
:1010D0000224C8F8007014601E70244B04211960AB
:1010E0002349D9600321996022490B6823430B608F
:1010F00001231360FFF768FFC8F80040FFF70CFBFF
:1011000000F01CFC1C4B1A6812B1FFF733FEF7E726
:101110005A68032A05D19A6A032A02D0FFF7B2FB64
:10112000EEE75A68052A06D1134A926A052A02D0C8
:10113000FFF700FCE4E75A68062A05D10E4A926AD6
:10114000062A01D0FFF750FD5B68042BD8D10A4B6B
:101150009B6A042BD4D0FFF76FFED1E738C009207B
:101160003CC0092004400040F40500100C40004041
:10117000FFFF4FC300E100E01805001000F0DEBBE8
:1011800008B50D4A0D4B0E498B4204D252F8041F8C
:1011900043F8041BF7E70B4B0B4A934203D20022A0
:1011A00043F8042BF8E7FEF7BFFF084B084A1A6024
:1011B000FFF756FFFEE700BF5C1F00002000001095
:1011C000FC040010FC0400107826001008ED00E07C
:1011D00000000000FEE70000830803EBD00303EBF0
:1011E000901303EBD01303EB902303EBD020044BBD
:1011F00058605A68013A5A60002AFAD1704700BF15
:1012000044050010014B5843FFF7E6BF40420F0072
:10121000104A0023136053609360D3601361D3615D
:10122000536293620C4A1360136213641366C2F82C
:1012300080300A4A136053609360D3601361D361B6
:101240005362074A1360136213641366C2F8803056
:10125000704700BF00C0024000C0092040C00240EB
:1012600014C0092008B5FFF7D3FF4CF21271094AE8
:1012700000231360116240F2B11111644FF040512C
:101280001366C2F880105361536353655367C2F805
:10129000943008BD00C00920114B1A6822F4404266
:1012A00042F400421A601A6822F4405242F400529A
:1012B0001A601A6822F4403242F400321A601A6846
:1012C00022F4402242F400221A60064B4FF0805272
:1012D0001A60054BC7221A600C225A60704700BF83
:1012E00000C0024098C0092000000340094A13686A
:1012F00023F470131360084A136823F0C06313606B
:10130000064B1A6842F420121A601A6822F4A012DE
:101310001A60704704C0024000C0092044C0024067
:1013200030B50125431E9D400D4B20220138C0B22F
:10133000FF281A600B4C0FD029424FF0010214BF56
:1013400022601A6010222260074C49002468A4071A
:1013500048BF41F00101E9E720232360084630BD82
:101360005CC0092058C0092054C0092010B50A4C9F
:10137000FFF7BCFF4FF4007323603220FFF72CFF10
:10138000064B20221A604FF4804323601820044942
:10139000BDE81040FFF7C4BF38C0092058C009207D
:1013A000FF7F0D0008B540F0800109041820FFF709
:1013B000B7FF80B208BD41EA00411820FFF7B0BF77
:1013C00008B540F0800109021020FFF7A9FFC0B264
:1013D00008BD41EA00211020FFF7A2BF08B5002197
:1013E0000820FFF79DFFC0B208BD08B501460820E0
:1013F000FFF796FFC0B208BD08B518200021FFF71F
:101400008FFF0020FFF7CEFF0028FAD118204FF4FD
:101410000041FFF785FF0020FFF7C4FFB0F5004F44
:10142000F9D108BD2DE9F04144F23A023E4B3F4F5D
:101430001A603F4D00233B602B683E4C23F00203B3
:101440002B60AA232360552323603B4E3368980109
:10145000FBD42B6823F001032B60AA2323605523C0
:101460002360336813F08073FBD1DFF8F080C8F895
:101470000030FFF7C1FF18203049FFF751FF60200F
:10148000FFF7B3FFFFF7AAFF4106FBD52C4B202245
:101490001A601A685206FCD52A4B08221A600022EC
:1014A0005A6001233B60284A284BAA211A60552222
:1014B000216022602B6843F001032B6021602260D1
:1014C0003368DF01FCD50323C8F800302B6843F0F4
:1014D00002032B60AA2323605523236033689D01F8
:1014E000FCD51B4B22221A60AA2408335520194A26
:1014F0001C601860116841F0010111601C601860E7
:1015000015490868C405FBD508684005FCD5106876
:1015100040F002001060AA221A6055221A600B687F
:101520009B05FCD5BDE8F08100C00F400CC10F4009
:1015300080C00F408CC00F4088C00F40701508005D
:10154000A0C10F40A8C10F401800010084C00F4087
:10155000A4C00F40A0C00F40A8C00F4004C10F405E
:1015600008B5FFF755FE094B02221A604FF0804282
:101570001368074843F003031360064BAA221A605E
:1015800055221A60BDE80840FFF726BE3CC009207E
:1015900040420F000800004038B5084C8020256804
:1015A0006168402DA8BF40252A4600F057F96368BE
:1015B0002B44636023685D1B256038BD4C0500101B
:1015C00037B5114B1C7A1D46C4F34114022C0DD1C2
:1015D000002202A941F8042D03F1080003F11002D2
:1015E000043300F069FA08B101980AE005EB8404BD
:1015F00063692BB1054800F10801021F984700E01C
:10160000184603B030BD00BF4C0500105405001053
:1016100010B500284AD101F0040303F0FF01254C66
:101620000BB3082204F1080100F04CF9227AC2F34E
:10163000411304EB83035B6A6360E38923602361E6
:101640000BB1D30934D0FFF7BBFF28B9BDE8104078
:101650008020012100F0F6B8E28923699A42D4BFC4
:101660002260236019E02268002A1ADD616800F018
:1016700029F90028EADB6368034463602368181AC9
:101680002060A8B9237AC3F3411304EB83035B6A98
:101690006360FFF795FF0028D8D0BDE81040FFF742
:1016A0007BBF0A46BDE8104000F00CB98028F4D09A
:1016B00010BD00BF4C050010024B03EB80004161E0
:1016C000426270474C0500107047000010B50E4C88
:1016D00000F09AF90D4800F07FF82146002000F054
:1016E00061F82146802000F05DF80020402100F0E4
:1016F0003BF88020402100F037F800200449054ADB
:10170000FFF7DAFF012010BD11160000C916000016
:10171000851B000080050010034B1B6803408342BB
:10172000FAD1024B1860704700C2005008C2005046
:10173000044B000440F4A06030221A60986010202E
:10174000FFF7EABF08C2005010B50C46FFF7F0FFE4
:101750002404044B44F480741C601020BDE8104045
:10176000FFF7DABF10C2005010B500F00F04C00937
:1017700040EA4404094801230268A340134303607C
:10178000074B4FF480701C605960FFF7C5FF44F0B1
:1017900040000021BDE81040FFF7D6BF44C2005012
:1017A00048C20050094A00F00F0342F823100849CC
:1017B000C0090A6840EA4300012383401343054AF5
:1017C0000B60136843F00403136070478805001032
:1017D00034C2005004C20050034B044A186413681A
:1017E00043F00803136070478805001004C20050DE
:1017F00040F08001D020FFF7A7BF011C18BF0121D6
:10180000FE20FFF7A1BF0146F320FFF79DBF0000B8
:1018100010B500F00F04C00940EA44042046FFF769
:1018200087FF2404054B44F400741C602020FFF75C
:1018300073FF034B1868C0B210BD00BF10C2005048
:1018400014C2005000F00F03C00940EA4300003109
:1018500040F0400018BF0121FFF776BF38B51546AC
:1018600000F00F03C00940EA4300134A9B0043F015
:1018700002031360114B1D601368043113F002035F
:1018800010D011F8023C11F8014C1B0443EA046328
:1018900011F8044C234311F8034C43EA0423084C89
:1018A0002360E9E7044A1360FFF742FFFA20FFF7DD
:1018B0003FFF284638BD00BF28C2005024C2005058
:1018C0001CC2005070B5174C00F00F032646C0092B
:1018D00040EA43009B0043F001032360124B1B6866
:1018E0001D05FBD55C051AD500252C46C3F309035D
:1018F0009C420BD014F0030F04BF0C4D2D6811B1A6
:10190000944238BF0D552D0A0134F1E700233360AE
:10191000FFF70EFFF220FFF70BFF204670BD4FF0E0
:10192000FF3070BD28C2005020C2005018C20050C5
:10193000011C18BF0121D820FFF706BF38B5294B7D
:101940001C68E10711D501229A60274B5D6C65B1D7
:10195000F520FFF7EDFE254B254A20201A60FFF702
:10196000DBFE244B1868C0B2A847220717D5224BCC
:1019700008221A60FE20FFF7DBFE1C4B1F4A2020C6
:101980001A60FFF7C9FE1B4B1868C0B210F01A0F9F
:1019900005D0154B1B6C13B100F015009847630779
:1019A0001ED5154B04221A600024154A0123126823
:1019B000A340134211D0134A20201360FFF7ACFE5E
:1019C0000C4B60101968084B53F820302BB140EADB
:1019D000C410C0B201F01F0198470134202CE4D19B
:1019E00038BD00BF00C200508805001010C2005072
:1019F0000002F50014C2005008C200500002FE00B0
:101A000030C2005038C2005008B5254A136823F48C
:101A1000402343F48023136052F8043C23F0300346
:101A200043F0100342F8043C52F8043C23F04053C6
:101A300043F0005342F8043C52F80C3C23F040635E
:101A400043F0806342F80C3C52F80C3C23F04053C6
:101A500043F0805342F80C3C02F55022B432136834
:101A600043F0004313600F4A136843F012031360FE
:101A70000D4B1A689107FBD51A68D206FCD50B4BA3
:101A800000200B4A18604FF0FF3313605062D062A1
:101A90001363084B1860FFF7B6FE012008BD00BFB6
:101AA00010C00240F4CF0050F8CF005004C20050E4
:101AB00008C2005040C2005070B5164C2578002472
:101AC00015B34678AE4221D10C60C6884488808820
:101AD000042805D005281BD10F481860922002E089
:101AE0000E48186028201060200A14680004844200
:101AF0000EDB1D680544201A1D60B042D4BF106083
:101B000016600120086070BD284670BD204670BD7B
:101B1000012070BDD005001058040010141F0000F3
:101B2000014B5860704700BFD0050010F0B5060AA1
:101B3000032EC4B2114808D1EE2C06D1104900780A
:101B4000923108741960122312E04168002501E007
:101B500001350144087880B14F78B742F9D1A542E8
:101B6000F6D1022E196006D1C8788B7843EA00239B
:101B700013600120F0BD0B78FAE7F0BDD00500102E
:101B8000580400102DE9F0474B4E0546B3680F4648
:101B90001446B04643B9287800F01F06012E55D0F0
:101BA00006D3022E64D083E098470028F3D04AE0A1
:101BB0006A782368092A7BD8DFE802F0057A7A7A06
:101BC0007A090D7A151C00221A705A7047E0A8781D
:101BD000FFF70EFE37E06888A9883A462346BDE83D
:101BE000F047FFF7A3BF98F80C2001201A70386067
:101BF000BDE8F087AE780EB930461FE0FF27B94642
:101C0000D8F804402378C3B16378042B06D0052BA1
:101C100006D0022B0ED194F805900BE0E77809E08E
:101C2000B14507D137B961792379A07843EA012119
:101C3000FFF79AFD23781C44E4E70120FFF778FEC4
:101C40006B8888F80C300120BDE8F0876B7822683B
:101C50000A2B06D00B2B07D053BB137053700223F3
:101C600004E00023137016E06B880BBB3B60EAE7CF
:101C7000D4F800806C78012C0FD002D3032C10D044
:101C800016E02879FFF7C4FD0023C0F3400088F870
:101C9000000088F801303E60D5E7698841B92879AD
:101CA00003E06B8823B928790121FFF7CBFDCAE750
:101CB0000020BDE8F08700BFD0050010844641EA4F
:101CC000000313F0030349D1403A23D30B680360A8
:101CD0004B6843608B688360CB68C3600B690361AA
:101CE0004B6943618B698361CB69C3610B6A036292
:101CF0004B6A43628B6A8362CB6AC3620B6B03637A
:101D00004B6B43638B6B8363CB6BC363403040315E
:101D1000403ADBD230320BD30B6803604B68436030
:101D20008B688360CB68C36010301031103AF3D2F7
:101D30000C3205D351F8043B40F8043B043AF9D285
:101D4000043208D0D2071CBF11F8013B00F8013B58
:101D500001D30B8803806046704700BF082A13D365
:101D60008B07B1D010F00303AED0C3F10403D21A35
:101D7000DB071CBF11F8013B00F8013BA4D331F88D
:101D8000023B20F8023B9FE7043AD9D3013A11F80D
:101D9000013B00F8013BF9D20B7803704B7843709C
:101DA0008B7883706046704720F0030110F00300C9
:101DB000C0F1000051F8043B00F1040C4FEACC0CD8
:101DC0006FF000021CBF22FA0CF213434FF0010C1B
:101DD0004CEA0C2C4CEA0C4CA3EB0C0222EA03025A
:101DE00012EACC1204BF51F8043B0430F4D0C2F123
:101DF000000102EA0102B2FA82F2C2F11F0200EB14
:101E0000D2007047430000002000001012010002C1
:101E1000FF000040FFFF040000010102030109026E
:101E2000200001010080320904000002FF000000D0
:101E30000705820240000007050502400000040378
:101E40000904440368007400740070003A002F0015
:101E50002F00750062006500720074006F006F0053
:101E6000740068002E0073006F007500720063003C
:101E7000650066006F007200670065002E006E004E
:101E8000650074002F003003750062006500720069
:101E900074006F006F007400680020006100730020
:101EA000730065006D0062006C0079005F007400D3
:101EB0006500730074001203300030003000300001
:101EC000300030003000310000475C58CC73345E85
:101ED0008EB8B198E668BC11D716331CCD1723AE67
:101EE0002C66399A2F75C58CC73345E7EB8B198E55
:101EF000668BCE1D716331CCD1793AE2C66399A26B
:101F0000F36769742D31656538343334000000009F
:101F1000F11FFF1F28000000000104000100000065
:101F200000000000000157494E55534200000000D8
:101F3000000000000000000000000000F8B500BF35
:101F4000F8BC08BC9E46704779010000F100000013
:101F5000F8B500BFF8BC08BC9E467047CD00000035
:101F6000000000000C03001074030010DC030010DC
:101F70000000000000000000000000000000000061
:101F80000000000000000000000000000000000051
:101F900000000000041E000000000000000000001F
:101FA0000000000000000000000000000000000031
:101FB0000000000000000000000000000000000021
:101FC0000000000000000000000000000000000011
:101FD0000000000000000000000000000000000001
:101FE00000000000000000000000000000000000F1
:101FF00000000000000000000000000000000000E1
:1020000000000000000000000100000000000000CF
:102010000E33CDAB34126DE6ECDE05000B00000094
:1020200000000000000000000000000000000000B0
:1020300000000000000000000000000000000000A0
:102040000000000000000000000000000000000090
:102050000000000000000000000000000000000080
:10238000000000000000000089096009B309000096
:1023900041260010F8250010920000000001050001
:1023A000010088000000070000002A0044006500CA
:1023B000760069006300650049006E0074006500E6
:1023C0007200660061006300650047005500490027
:1023D000440073000000500000007B00300031001A
:1023E0003200330034003500360037002D00300055
:1023F0003100320033002D00340035003600370044
:102400002D0038003900610062002D0030003100DD
:102410003200330034003500360037003800390010
:10242000610062007D000000000012034D005300B7
:0C24300046005400310030003000410034
:040000030000118167
:00000001FF
