S0160000626C7565746F6F74685F727874782E7372656303
S1134000E03F001011830000658300006583000019
S113401065830000658300006583000000000000E4
S113402000000000000000000000000065830000A4
S113403065830000000000006583000065830000C4
S113404065830000955000006583000065830000CF
S113405065830000658300006583000065830000BC
S113406065830000658300006583000065830000AC
S1134070658300006583000065830000658300009C
S1134080658300006583000065830000658300008C
S113409065830000D1510000658300006583000042
S11340A00D83000065830000055200006583000055
S11340B0658300006583000065830000658300005C
S11340C065830000658300006583000010B5054C1E
S11340D0237833B9044B13B10448AFF300800123B0
S11340E0237010BD000A001000000000DC9B0000DB
S11340F0084B10B51BB108480849AFF300800848C5
S1134100036803B910BD074B002BFBD0BDE810407A
S1134110184700BF00000000DC9B0000040A0010E8
S1134120000A00100000000070B50F4E0F4D761B02
S1134130B61018BF002405D0013455F8043B984745
S1134140A642F9D10A4E0B4D05F048FD761BB61078
S113415018BF002406D0013455F8043B9847A64202
S1134160F9D170BD70BD00BFE89B0000E89B000062
S1134170F09B0000E89B000070B4840746D0541EF6
S1134180002A41D0CDB2034602E0621EE4B31446D5
S113419003F8015B9A07F8D1032C2ED9CDB245EA76
S11341A005250F2C45EA054519D9264603F11002C9
S11341B0103E0F2E42F8105C42F80C5C42F8085C8A
S11341C042F8045C02F11002F2D8A4F1100222F0C9
S11341D00F0204F00F041032032C13440DD91E46B1
S11341E02246043A032A46F8045BFAD8221F22F036
S11341F003020432134404F003042CB1C9B21C4476
S113420003F8011BA342FBD170BC7047144603465C
S1134210C2E700BF024B13B1024800F005B8704773
S1134220000000003542000001460020024603461B
S113423000F016B838B5084B084DED1AAC1018BF8D
S1134240ED1805D0013C55F8043D9847002CF9D1F0
S1134250BDE8384005F0CCBCFC9B0000009C00008D
S11342602DE9F047254C064625688846D5F848418F
S113427092469946C4B360681F2817DC411C76B186
S113428004EB8003C3F888A0D4F88851012282404B
S11342901543022EC4F88851C3F808911ED0831C1C
S11342A06160002044F82380BDE8F087144B03B319
S11342B04FF4C870AFF300800446D0B1D5F848314C
S11342C0002784E888003846C5F848410121C4F82D
S11342D08871C4F88C71002EE1D0D1E7D4F88C3108
S11342E01A43C4F88C21DAE705F5A674C5F84841E9
S11342F0C1E74FF0FF30BDE8F08700BF4C920000EB
S11343000000000010B500231A4640FA03F1C3F17F
S1134310070401F00101A14001330A43082BD2B282
S1134320F3D1104610BD000038B5254B254C1A7842
S113433012B11A78012A27D11B7833B1204B1B788C
S1134340012B14BF0025402500E029250D2047F648
S1134350FF7104F008F9122042F6223104F003F947
S1134360142041F24B3104F0FEF8202040F20111F8
S113437004F0F9F821880220013989B204F0F3F835
S11343800320294604F0EFF8208880B203F054F9A2
S113439003F0EEF904F088F94206FBD5612004F03D
S11343A08AF904F081F94307FBD5622004F083F90C
S11343B0054B80221A604FF480721A6038BD00BF2A
S11343C01C0A00104804001058C0092070B5274B7F
S11343D004461A7832B11B78012B46D1402540F2AD
S11343E0615602E040F2614629250D2047F6FF712F
S11343F004F0B9F8122042F6223104F0B4F8142083
S113440041F24B2104F0AFF82020314604F0ABF820
S1134410A1B22C2004F0A7F8210C154C2D2004F097
S1134420A2F821880220013989B204F09CF8032003
S1134430294604F098F8208880B203F0FDF803F0D0
S113444097F904F031F94206FBD5612004F033F901
S113445004F02AF94307FBD5622004F02CF9054B3C
S113446080221A604FF480721A6070BD1C0A00101A
S11344704804001058C00920F8B507460E4602F05B
S1134480FBFF1D4D044620B96B7843F004036B70A9
S1134490F8BD042F07700ED140F63541174A136852
S11344A01B0DC370164B12681B68C2F3130201FB89
S11344B00233436014E0AB78C3706B6843602B89AC
S11344C0623B83700F4B1B7843720F4B1B78037254
S11344D0288980B203F09CF80C4BA0721B78E3721D
S11344E004F10E003146322204F00AFE6B780120FA
S11344F0637000236B70F8BD1C0A0010C40B00101D
S113450008400040AA0B0010A80B00104610001031
S113451010B5044C606003F033FF6081000C20810F
S113452010BD00BF4804001010B5642004F0C3F8A7
S113453004F0BAF800F0040000F0FF040028F7D1FA
S1134540214B80221A6010214FF480721A6043F8C4
S1134550201C43F8202C022243F8202C03F0E0F81E
S113456003F00AFA03F0CAF802F0EEFF40F68911EC
S1134570164B174A9C72DC7211809E219C81A2F812
S1134580481040F66211DC81A2F84A109C705C600D
S11345901C811C745C705C749C74DC741C751C70D1
S11345A04FF41663A2F84C3040F6B313A2F84E3021
S11345B0E22382F85030074B00200021C3E90001B8
S11345C0C3E9020110BD00BF5CC009201C0A001031
S11345D048040010C01000102DE9F041394D3A4F45
S11345E028886238C0B202F03DFE00221346395CCE
S11345F0364E985D0133C0071F2B40EA5202F7D1B3
S11346006C68F05CC00740EA5202A24253D1002019
S11346104FF00008C64603EBC00C0EEB0C0232440C
S1134620032812F81F2C0ADD7C1894F82840013165
S113463062407F24B1FBF4F4C4EBC414091B02FAF6
S11346400EF20EF1010E42EA0802BEF1080F5FFA03
S113465082F8E2D11E4C226802F8008001302E2834
S1134660D6D16B695BB921680120FFF705FF194BAF
S113467010221A60184B20689B6998471FE0236832
S11346805D79104B216805F03F05AA1C18690431B7
S113469002F068FE226805F10803D35C2168EA1D74
S11346A08A5C21680635495D120242EA03430B43E2
S11346B0984204D1D7E70133B3F5D87FA1D10120C3
S11346C0BDE8F0814804001050920000240D001051
S11346D0200D001038C009201C0A001070B5594B79
S11346E00546197E027902291C4613D103221A7643
S11346F0554A1268DA615A8C013A92B21A8400223D
S11347009A84DA62514BDA7C002A00F099802822DC
S1134710DA6170BD03293BD1DB6A02F00302A3B165
S1134720A38C218E9BB299420FD1474B1B68E36146
S1134730638E6384013B9BB2238494F8343084F801
S11347402630E38E23850023E362032A78D1AB79F4
S1134750002B75D1EB7984F834306A7A2B7A03EB29
S11347600223E386EA7AAB7A03EB022363866A7C4C
S11347702B7C03EB0223A28C9BB292B223869B1A5E
S113478047F6FE7293425BDC2E4B0122DA6270BD67
S1134790012955D102F00F02052A51D14379222B68
S11347A04ED1427F037F43EA022340F67A42063B1E
S11347B09BB2934244D8236C3BB902230020237656
S11347C0606105F11101034611E004F13800A91DEF
S11347D0062204F063FC0028EFD004F1380005F150
S11347E00C01062204F05AFC0028E6D070BD11F832
S11347F0012FDE000133B240042B40EA0200F6D15F
S1134800FFF786FEEB7D287E1B0243EA0043A87D6A
S11348101843E06003F0B4FD6B7E206184F8263019
S1134820AB7E23856A7F2B7F43EA0223638495F85A
S11348302730012203F01F03A3766376034BDA7259
S113484070BD00BF48040010C40B00101C0A001007
S113485070B5594B0546197E027902291C4613D1BD
S113486003221A76554A1268DA615A8C013A92B2D6
S11348701A8400229A84DA62514BDA7C002A00F00E
S113488099802822DA6170BD03293BD1DB6A02F0EA
S11348900302A3B1A38C218E9BB299420FD1474B43
S11348A01B68E361638E6384013B9BB2238494F8A9
S11348B0343084F82630E38E23850023E362032A10
S11348C078D1AB79002B75D1EB7984F834306A7ADE
S11348D02B7A03EB0223E386EA7AAB7A03EB022317
S11348E063866A7C2B7C03EB0223A28C9BB292B27C
S11348F023869B1A47F6FE7293425BDC2E4B012201
S1134900DA6270BD012955D102F00F02052A51D196
S11349104379222B4ED1427F037F43EA022340F6A0
S11349207A42063B9BB2934244D8236C3BB90223A0
S113493000202376606105F11101034611E004F1C2
S11349403800A91D062204F0A9FB0028EFD004F1C9
S1134950380005F10C01062204F0A0FB0028E6D083
S113496070BD11F8012FDE000133B240042B40EA80
S11349700200F6D1FFF7CCFDEB7D287E1B0243EA53
S11349800043A87D1843E06003F0FAFC6B7E2061CD
S113499084F82630AB7E23856A7F2B7F43EA02238B
S11349A0638495F82730012203F01F03A37663760E
S11349B0034BDA7270BD00BF48040010C40B001032
S11349C01C0A0010F8B50E4615461C46472800F28E
S11349D02483DFE810F0030148004D005100560025
S11349E059005E006100630067006C00C000C700EE
S11349F009017A0075007F00840087008C00940010
S1134A00B800BA00BC000101060122030B019800A2
S1134A109F00A900A700AB003401270151015401F4
S1134A2058015C01A501DD010002400250025A0256
S1134A30200369026E0274027B028902EA01F60114
S1134A409702D1024301E40222039F02FA021B03EC
S1134A50C701D9010C022203A402B6022501C60231
S1134A601302DA0248029F4B012098740023A6E146
S1134A709C4B02229A727DE29B4B1B68C3F340035A
S1134A8003E10A88022315E0974B1B68C3F3001364
S1134A90FBE00A8810230DE0934B24E00A884FF4CE
S1134AA0807307E0904B1B68C3F34023EDE00A8852
S1134AB04FF400730AB18D4A00E08D4A1360AAE2F4
S1134AC01046214603F0D8FEA5E21046214603F025
S1134AD0EFFEA0E2874B1B68C3F3C013D5E00A883E
S1134AE0802307E0834B1B68C3F30023CDE00A88CF
S1134AF04FF480730AB1804AE0E7804ADEE703227C
S1134B00784B9A7487E2052003F024FD00F0070037
S1134B102870E6E10988072900F27F82052041F028
S1134B200801F9E10522EBE70622E9E7744B1A785C
S1134B302A705A786A709A78AA70DA78EA701B79BF
S1134B402B7105234BE00022DAE7664B9CE00A78E0
S1134B50644B1A705FE26B4B1A882A701B88C3F38C
S1134B600723A4E10A8840F6EA215E4BDA81DA8958
S1134B7092B28A4204D901229A7240F6621215E076
S1134B8000229A7240F6DC02D98989B2914240F639
S1134B90E92184BFDA8992B2DA81DA8992B28A424F
S1134BA08FBF40F6EA224F4AD28992B2DA81D8897D
S1134BB0544A80B2A2F84A005B7C4A49092B00F0AF
S1134BC02A824B7C122B00F02682CB899BB2138065
S1134BD00023CB81108891E103F09EFE0023236023
S1134BE019E2494A494B1A600B2289E70A886FF493
S1134BF000601318B3F5806F80F00F824B886FF458
S1134C0000615918B1F5806F80F007829342C0F0BB
S1134C1004823C49A1F84C20A1F84E300422A8E1BA
S1134C200F22A6E10B88B3F5807F00F2F681354AA6
S1134C30C3F13603DBB282F85030072299E1002336
S1134C4013705370324804F0D1FAC6B2AE703246D3
S1134C50E81C2F4904F054FA03360BE02D4804F005
S1134C60C5FAC6B22846324600F8016B294904F059
S1134C7047FA01362660CEE10120107032E10A883D
S1134C80254B1A7038E1244B1B782B7029E1234CF7
S1134C9000220023C4E90023C4E902230026A85DFE
S1134CA0F200002104F0EEF9D4E9002301361043A8
S1134CB01943082EC4E90001F1D107350026F2009A
S1134CC015F8010F002104F0DDF9D4E902230136BF
S1134CD010431943082EC4E90201F0D102F082F90D
S1134CE099E100BF1C0A001034C0092038C0092013
S1134CF03CC0092054C0092058C009205CC00920C8
S1134D00801000104804001021BB05431C00001053
S1134D100C9B0000F792000048100010C010001017
S1134D20AC4B00221A60E81C6A1E1968090219605B
S1134D3012F8014F1968824241EA04011960F4D162
S1134D40A54B02229A72A54A01204FF08051187493
S1134D50116029796A7942EA0122A1490A8008226C
S1134D609A74F8BD9C4B05229A720E229A74002301
S1134D709C4900225A5401330A2BF9D19A4B012041
S1134D801A709A4B1870F8BD934B0120D872F8BD75
S1134D90AB7852781B0443EA02232A781343EA7857
S1134DA043EA0263924A1360A6E00023E95C8D4A59
S1134DB0995401330A2BF9D18C4A012010702360D5
S1134DC0F8BD0023874900225A5401330A2BF9D134
S1134DD086490A7003E7864B19680023DA0021FA32
S1134DE002F2EA540133042BF8D10423F7E61278D3
S1134DF06B7843EA02237A4A13800CE17D4B1078E6
S1134E005278198842EA00220A4492B21A801A8817
S1134E10794812B2002A794A07DA1B884FF4A07144
S1134E205B429BB291FBF3F30AE0198809B20029B3
S1134E300DDD1B884FF4A0711BB291FBF3F39BB201
S1134E4013806F4B196813889BB20B4401E0002355
S1134E5013800360DFE0604B00222260DA720322D9
S1134E609A72092245E05C4B00222260DA72032226
S1134E709A7212223DE00023624AD9005268CA4065
S1134E80EA540133042BF7D1AFE7937850781B042D
S1134E9043EA002310780343D07843EA0060FFF725
S1134EA037FB0120574B8EE01323137037236B70AD
S1134EB02EE0544B5B69003318BF0123E5E60B88F1
S1134EC0504A003318BF01235361A4E002F0EEFA04
S1134ED0014628B12846402204F012F940237EE618
S1134EE0287001202060F8BD3B4B002222609A729A
S1134EF00A229A7402F0B2FA424B188880B202F085
S1134F009BFB88E0087803F025FB030A2B7068708C
S1134F10022364E60878498803F025FB7BE000233C
S1134F2032885C1CDBB2934275D203EB4303EA186C
S1134F3051789278E85C42EA012103F014FB23469D
S1134F40EEE70026F7B2384603F004FB0136030A05
S1134F502E2E2F706B70A87005F10305F2D18723F4
S1134F603DE6927928480732D2B2294604F0C8F8BF
S1134F701022194B9A7431E6174C114604F12000A3
S1134F80062204F0BDF80C2307E0134C114604F18B
S1134F902000062204F0B4F81123A3743BE05279F4
S1134FA0184B012083F838202A7983F83920EA78CD
S1134FB083F83A20AA7883F83B206A7883F83C2067
S1134FC02A7883F83D201864F8BD0A78024BDA7415
S1134FD021E000BFB80B00101C0A001098C0092083
S1134FE0120D0010AB0B0010A90B0010471000109D
S1134FF0C40B0010441000107C100010C00B0010F3
S1135000BC0B001048040010C80B0010044B0D2208
S11350109A740A781A750120F8BD0020F8BD00BF03
S11350201C0A0010054A136823F07F4303F5A0739C
S1135030116821F07F419942FAD37047C40B0010E4
S11350402DE9F04106460F46904602F015FA0F4D41
S1135050044628B96B7843F004036B70BDE8F08113
S11350600B4B06701B880026623BC670C0F8048098
S113507083708672C672394632220E3004F040F8CC
S11350806B786E7063700120BDE8F0811C0A00101B
S11350904804001070B54FF040231B68DB077DD532
S11350A03F49404B08681A68024401321A600022E2
S11350B00A603D4918683D4A8E7AD4690D4616B196
S11350C08E7A012E05D11A68560635D10122EA726C
S11350D032E08D7A022D03D11A68D4072CD429E04A
S11350E08D7A032D1AD1157E032D25D1001B80073F
S11350F022D1108C013880B21084108C80B240B957
S11351000120C872918C014489B29184518C11841C
S113511012E0274A4FF4807111600DE0887A052867
S11351200AD124480068B2F848201C6892B20244AC
S1135130A24201D10122CA721F49204A0868C0B1A3
S1135140108880B2A8B91C680868844211D31C482E
S1135150008800B20028B4BF41F669000120108025
S11351601C681848046004681748008880B220440A
S1135170086040F63440118889B2814282BF1968C0
S113518002311960138811499BB203F634430B6052
S11351900023138001224FF040231A6070BD00BF2A
S11351A0B80B0010C40B00101C0A001048040010B7
S11351B03CC00920A00B00107C100010120D001040
S11351C044100010BC0B0010C00B0010184000402D
S11351D0084B04221A60084B4FF080521A60074BA8
S11351E001221A70064B9A7A022A04BF00221A740A
S11351F0704700BFAC8002409CC00920BD10001065
S11352001C0A001010B52B4B5A7C012A17D05A7C6B
S1135210082A14D05A7C042A11D05A7C092A0ED0A8
S11352205A7C112A0BD05A7C0A2A08D05A7C0C2AA0
S113523005D05A7C122A02D05A7C0F2A39D11E4A30
S11352401268D10735D51D4A1268D20726D540F613
S113525035441B4A012111609A7A1A48022A02BF76
S1135260194A4FF080511160184A01681268C1F35D
S1135270130104FB01225A600268C2F307529A70B8
S1135280134A128892B21A81124A134B1168186891
S11352901060124A1960136801331360104B1B68C5
S11352A0DB0706D50F4B01221A600F4A136801333E
S11352B0136010BD1C0A0010004000500440005050
S11352C008400050C40B001098C00920084000405A
S11352D048040010040C0010200D0010A40B001052
S11352E00C40005010400050B81000102DE9F04759
S11352F090B005460C4691460DF103070DF1FF32BF
S1135300E8B201322D0A0721002300F001068E4085
S1135310334311F1FF31DBB24FEA5000F5D2BA4208
S11353201370EDD15A4E5B4F30880DF1040A623888
S1135330C0B201F097FFCC463B5CC9EB0C02A24221
S113534021D21CF8012B4FF0070E4FF00008F8187B
S113535090F8280002F00101414001337F20B3FBA3
S1135360F0F001FA0EF1C0EBC01041EA08081EF19A
S1135370FF3EA3EB00034FEA52025FFA88F8E6D23D
S11353800AF8018BD9E70D2047F6FF7103F0EBF81B
S1135390122042F6223103F0E6F8142041F24B3198
S11353A003F0E1F8202040F6014103F0DCF83188F5
S11353B0022089B203F0D7F805200B2103F0D3F8BB
S11353C00320402103F0CFF81421232003F0CBF86D
S11353D0ED074CBF4AF6AA2145F255512D2003F0A2
S11353E0C2F8082003F0B6F8C0F3080104340646F6
S11353F041F49C410820E4B203F0B5F803F054F9F9
S11354004006FBD5612003F056F903F04DF941073E
S1135410FBD5214B4FF480721A6080221A620E2051
S113542003F098F800F01F000F28F8D1632003F070
S113543042F90025A5420ED2184B1B685A07FBD42B
S1135440601BC0B210280DEB050128BF102003F02B
S11354509DF81035EEE70E2003F07CF800F01F00F5
S11354600F28F8D10E4B4FF480721A60642003F0B9
S113547022F903F019F94307FBD40A4B80221A607E
S11354800820314603F06FF810B0BDE8F08700BF84
S1135490480400105092000038C0092054C009206C
S11354A03CC009205CC0092008B50D2047F6FF71F7
S11354B003F059F8122042F6223103F054F8142074
S11354C042F24B3103F04FF8202040F6014103F043
S11354D04AF805200B2103F046F80320402103F08D
S11354E042F803F0E1F84206FBD5612003F0E3F84B
S11354F003F0DAF84307FBD5084B4FF480721A60C7
S113550080221A620E2003F025F800F01F000F28F5
S1135510F8D16320BDE8084003F0CDB838C00920B5
S113552038B55D4C0023E3725C4B5D4A1968116029
S1135530A27A4AB9022003F00DF85A4B1B889BB299
S1135540013B98427DD138BDA27A012A30D1564B15
S11355501978564B1878534A138820339BB213801A
S113556013889BB2B3F51B6F81BF13884F3B9BB26B
S11355701380002965D0002863D0138808259BB2C6
S1135580A3F6621393FBF5F31288494D92B2ED5CD6
S1135590484BA2F662121340002BBEBF03F1FF3347
S11355A063F00703013345FA03F3DD07D3D548E07D
S11355B0A27A052A2CD13C4B19783A4A1388203315
S11355C09BB2138013889BB2B3F51B6F81BF138802
S11355D04F3B9BB213804F2933D0138808209BB2D2
S11355E0A3F6621393FBF0F31288314892B2C05CC5
S11355F0304BA2F662121340002BBEBF03F1FF33FF
S113560063F00703013340FA03F3D807D5D418E055
S1135610A27A022A05D1186801F084FD214B188072
S11356200FE0A37A032B05D11E4D281D01F045FE82
S1135630288006E0A37A042B01BFA389194A9BB2F0
S11356401380642003F037F803F02EF84207FBD4EC
S1135650607C144DC0B2298802281CBF01F1FF31BF
S1135660022089B202F07FFFA37A1BB1288880B29E
S113567001F0E2FF612003F01EF803F015F8430780
S1135680FBD501232374637C022B0CBF63206220AF
S1135690BDE8384003F00FB81C0A0010C40B00101A
S11356A0A00B001048040010A90B001047100010B4
S11356B0AB0B0010070000802DE9F0474A4E102381
S11356C0336001F0CBFE02F0BFFE02F0A9F802F055
S11356D02DF9FEF729FE01F0E1FF444CA37CA0461E
S11356E0012B78D11023336001F02EFF8025404B2D
S11356F0DFF820A11A683F4F99461ABB062002F032
S113570029FF9AF80030C0F307205BB1802D09D13E
S1135710394B40B293F900503635A842B8BF2846F9
S1135720C5B2284640B201F02BFF386801F0F8FEFC
S113573098F80B3013B1FFF7F3FED8E74FF48073FA
S11357403360D4E72D4B10222D4D1A602B681BB10A
S1135750637843F002036370D9F80030012B82BFF1
S1135760637843F001036370227C204B2AB15A789A
S113577042F020025A7000221A74224B188880B218
S113578001F01EFF9AF8003013B91F4B1B7833B198
S1135790637843F00803637000238AF80030164BE3
S11357A01A4A93F9003092F9002035339342B8BF76
S11357B063784FF00000BCBF43F010036370144BD8
S11357C01968FEF759FE386801F0AAFE0023C9F8EB
S11357D000302B6081E7A37C082B83D002F0CCF847
S11357E0BDE8F04701F072BF3CC009201C0A00105C
S11357F0A40B0010C40B0010BC10001038C009200A
S1135800B810001048040010100D0010A80B001070
S1135810200D0010BD1000102DE9FF41934B00270F
S1135820D3E90245002304F0010213434AF6AA23F4
S11358304FEAD57645F2555808BF9846002F08BF61
S1135840012EE0B20CBFAA265526FEF75BFD8DF8AB
S11358500000C4F30720FEF755FD8DF80100C4F3E2
S11358600740FEF74FFD8DF80200200EFEF74AFDBB
S11358708DF80300E8B2FEF745FD8DF80400C5F38A
S11358800720FEF73FFD8DF80500C5F30740FEF73E
S113589039FD8DF80600280EFEF734FD8DF807005B
S11358A03046FEF72FFD8DF808007720FEF72AFD1D
S11358B08DF809006620FEF725FD8DF80A005520B5
S11358C0FEF720FD8DF80B004420FEF71BFD8DF83C
S11358D00C003320FEF716FD8DF80D002220FEF794
S11358E011FD8DF80E001120FEF70CFD3C463B46E1
S11358F08DF80F0048FA03F2C3F10F0102F0010220
S11359008A4001331443102BA4B2F3D10D2047F67F
S1135910FF7102F028FE122042F6223102F023FE2B
S1135920142041F24B3102F01EFE202040F60141CA
S113593002F019FE21462C2002F015FE2D20002134
S113594002F011FE4A4B022019884A4C89B202F037
S11359500AFE05200B2102F006FE237813B903206A
S1135960292104E02378012B1DD10320402102F0DA
S1135970FAFD01F0FDFE02F097FE4506FBD561201D
S113598002F099FE02F090FE4007FBD53A4B8022CC
S11359901A600E2002F0DEFD00F01F000F28F8D17F
S11359A0632002F088FE1421232002F0DCFD08208D
S11359B002F0D0FDC0F30801074641F49C410820E1
S11359C002F0D1FD0026A37C022B45D176082B4D95
S11359D02B68B6EB530F05D1E37A002BF7D0FFF712
S11359E09FFDF4E7264B1A6840F6C9039A42F3D99F
S11359F0244B4FF480722E6810201A60694602F01E
S1135A00C5FD0E2002F0A6FD00F01F000F28F8D1FE
S1135A101D4B4FF480721A60642002F04CFE02F0B9
S1135A2043FE4107FBD402F03FFE4206FBD5612052
S1135A3002F041FE02F038FE4307FBD50E2002F0CF
S1135A4089FD00F01F000F28F8D1632002F033FE17
S1135A50286801F065FDB6E70C4B80221A60082027
S1135A60394602F080FD04B0BDE8F081C01000109A
S1135A70480400101C0A001058C00920C40B001070
S1135A800840004038C009203CC009205CC00920FF
S1135A9008B50F48FEF73CFD0E4B0F4ADA600F4A7B
S1135AA01A6100221A845A619A845A641A765A76C0
S1135AB09A76DA615A8483F826201A85DA621A867D
S1135AC05A8683F83420DA86054BDA7208BD00BFA3
S1135AD0D6BE898E4804001055555500AAAAAA00BE
S1135AE01C0A001010B5064C002120464FF48472A5
S1135AF0FEF742FB4FF0FF33C4F8003110BD00BF86
S1135B00080C00102DE9F0476A4C012382462370EB
S1135B106074FFF7BDFF684B4FF08072674F1A60E7
S1135B2010233B6001F09AFC02F08EFC01F078FE39
S1135B3001F0FCFEFEF7F8FB01F0B0FD0026A37CAB
S1135B40534540F0A5805B4BDB899BB2CBB164200D
S1135B5002F0B1FD02F0A8FD4207FBD4584B02202D
S1135B601988013989B202F0FEFC612002F0A3FD1C
S1135B7002F09AFD4307FBD5622002F09CFD00234E
S1135B80E381E37A13B1FFF7CBFC02E04FF48073B7
S1135B903B6010233B6001F0D7FC8025494BDFF8C4
S1135BA044911A689846D2B9D9F80030BBB9062096
S1135BB002F0D0FC444BC0F307201B785BB1802D6E
S1135BC009D1424B40B293F900503635A842B8BFD0
S1135BD02846C5B2284640B201F0D2FCDEE7D9F827
S1135BE000301BB1637843F002036370D8F80030CF
S1135BF0002B59D0334B1B68012B82BF637843F0D1
S1135C00010363702E4B188880B201F0D9FC2E4A30
S1135C10137813B92E4B1B7833B16378022643F003
S1135C200803637000231370284B2A4A93F9003049
S1135C3092F900203533934205DA6378022643F063
S1135C401003637000E07EB323484FF4C872013E32
S1135C5000F5C87103F054FAF6B200221E4B02F1AB
S1135C60320003EBC00000211C4D2B689B5C2D68A7
S1135C70DB094354AB5C01315B00DBB20829AB5454
S1135C80F2D10132322AE9D1A36A1348984758B9AC
S1135C90134B4FF080721A60FEF746FC01F06CFE65
S1135CA0BDE8F04701F012BD0023C8F80030C9F880
S1135CB0003044E71C0A001000E100E03CC0092069
S1135CC048040010A40B0010BD100010BC100010FC
S1135CD0100D0010A80B0010240D0010200D001052
S1135CE080E100E0B81000102DE9F04F93B0A74D0B
S1135CF0A74C01232B702376A64B4FF08072A64E3F
S1135D0068741A6010233360804601F0A7FB02F028
S1135D109BFB01F0C3FD01F009FE606802F030FB5B
S1135D20FEF754FBB146AB7C434540F0A281974B50
S1135D30DB899BB2C3B1642002F0BDFC02F0B4FC69
S1135D404707FBD421880220013989B202F00BFCF9
S1135D50612002F0B0FC02F0A7FC4607FBD56220EC
S1135D6002F0A9FC0023EB811023C9F8003001F0F4
S1135D70EBFB8A4B1A689A4642B9894B1B682BB9CC
S1135D80EB7A1BB9814B9B7C4345F2D0062002F091
S1135D90E1FB844BC0F307201870834B7B4A1870D7
S1135DA0AB7C434540F06581DFF8F4B1DBF80030AB
S1135DB0DC461BB1537843F002035370EB7A03F0D3
S1135DC0FF01002B40F0A680DAF80030002BAAD0A7
S1135DD0342205A8CDF80CC0FEF7CEF920886368FC
S1135DE06238C0B2059301F03DFA302646436F4F46
S1135DF0BB1901936E4B18785A7893F802E0120499
S1135E00D97842EA0060084340EA0E20029302F087
S1135E10B7FABE59029B7040C0F30526B71C272F62
S1135E200690DDF80CC075DC0836B2080B2A0DD0DC
S1135E3003EB82035F4A12689A420BD2DCF800201B
S1135E40002AF7D006E0DCF800301BB95A4B1B6877
S1135E50D807F8D4594A6120136823F0010313606A
S1135E6002F029FC04235249581CCA5C03F1030EB6
S1135E7011F800C0981C085C11F80EE099104EEA65
S1135E80026242EA0C4242EA00200393029102F0C9
S1135E9077FA029912AB03EB810E019B53F8212090
S1135EA0039B504004332C2B4EF8300CDBD1636938
S1135EB0DBB9434B10221A6005A8AB699847414BE4
S1135EC04FF080761E6005A90120FEF7D5FA40F652
S1135ED03541304B1E603C4B1A683C4BC2F31302F5
S1135EE01B6801FB0233636414E0294B3A461869CA
S1135EF006A901F037FA12AB1F441E4417F82F3CD1
S1135F0016F8342C1B0243EA024317F8302C1343CF
S1135F109842CED0612002F0CEFB284A136823F0C9
S1135F20010313602A4B1B68590702D5294B1B68D0
S1135F30F8E740F63541244B1A68244BC2F31302A8
S1135F401B6801FB0233616C227E8B4238BF03F174
S1135F504343A2F1020238BF03F5A003012A03D888
S1135F601D4A5B1A934202D8EB69012B50D1FFF70B
S1135F708FFD4FF480710023EB61C9F80010E97CB8
S1135F80024A01292AD1D374937472E01C0A0010C6
S1135F904804001000E100E03CC00920A40B0010FC
S1135FA0B8100010A80B0010AA0B001040930000BA
S1135FB0851000100441005010410050240003409B
S1135FC038C0092080E100E0C40B00100840004004
S1135FD00C0003400800034080F0FA02B8F10A0FF5
S1135FE047D001236420237602F065FB02F05CFBBA
S1135FF04207FBD4B4F84A309BB223B1234BB3F825
S11360004A309BB201E040F6621323800123EB6225
S11360102C20618902F0A7FA2D20218902F0A3FA2D
S1136020EB7A0BB1FFF77CFAEB69194E002B05DD17
S1136030FFF73AFAF369013BF36114E001F02EFC37
S113604001F074FCF36A3BB1606802F099F9FEF761
S1136050BDF90023F36206E002F026FB4307FBD5FB
S1136060622002F028FB0023CAF80030CBF800308D
S113607059E6084B4FF080721A60FEF755FA01F0AA
S11360807BFC01F023FB13B0BDE8F08F4804001043
S11360901C0A001080E100E02DE9F04F93B0AC4DF4
S11360A0AC4C01232B702376AB4B4FF08072AB4E7C
S11360B068741A6010233360804601F0CFF902F04F
S11360C0C3F901F0EBFB01F031FC606802F058F910
S11360D0FEF77CF9B146AB7C434540F0AE819C4B66
S11360E0DB899BB2C3B1642002F0E5FA02F0DCFA6A
S11360F04707FBD421880220013989B202F033FA20
S1136100612002F0D8FA02F0CFFA4607FBD56220EC
S113611002F0D1FA0023EB811023C9F8003001F01A
S113612013FA8F4B1A689A4642B98E4B1B682BB9E7
S1136130EB7A1BB9864B9B7C4345F2D0062002F0D8
S113614009FA894BC0F307201870884B804A1870ED
S1136150AB7C434540F07181DFF808B2DBF80030D6
S1136160DC461BB1537843F002035370EB7A03F01F
S1136170FF01002B40F0B080DAF80030002BAAD0E9
S1136180342205A8CDF80CC0FDF7F6FF208863681B
S11361906238C0B2059301F065F830264643744F67
S11361A0BB190193734B18785A7893F802E01204E0
S11361B0D97842EA0060084340EA0E20029302F0D4
S11361C0DFF8BE59029B7040C0F30526B71C272F89
S11361D00690DDF80CC07FDC0836B2080B2A0DD01F
S11361E003EB8203644A12689A420BD2DCF8002063
S11361F0002AF7D006E0DCF800301BB95F4B1B68BF
S1136200D807F8D45E4A6120136823F001031360B1
S113621002F051FA04235749581CCA5C03F1030ED7
S113622011F800C0981C085C11F80EE099104EEAB1
S1136230026242EA0C4242EA00200393029102F015
S11362409FF8029912AB03EB810E019B53F82120B6
S1136250039B504004332C2B4EF8300CDBD1636984
S113626013B9236CB3B91CE03A4B3A46186906A932
S113627001F078F812AB1F441E4417F82F3C16F8AF
S1136280342C1B0243EA024317F8302C1343984280
S113629022D1E6E73B480DF11A01062202F0FEFE88
S11362A0D0B9394B10221A6005A8AB699847374B0F
S11362B04FF080761E6005A90120FEF7DDF840F658
S11362C03541254B1E60324B1A68324BC2F3130220
S11362D01B6801FB02336364612002F0ECF9284A75
S11362E0136823F0010313602B4B1B68590702D575
S11362F02A4B1B68F8E740F63541254B1A68254BB5
S1136300C2F313021B6801FB0233616C227E8B42D1
S113631038BF03F14343A2F1020238BF03F5A003DF
S1136320012A03D81E4A5B1A934202D8EB69012B57
S113633052D1FFF7ADFB4FF480710023EB61C9F834
S11363400010E97C024A01292CD1D374937474E0BF
S11363501C0A00104804001000E100E03CC00920C1
S1136360A40B0010B8100010A80B0010AA0B00100A
S1136370409300008510001004410050104100506B
S1136380240003408004001038C0092080E100E0AC
S1136390C40B0010084000400C00034008000340F8
S11363A080F0FA02B8F10A0F47D001236420237663
S11363B002F081F902F078F94207FBD4B4F84A30CC
S11363C09BB223B1234BB3F84A309BB201E040F6B1
S11363D06213238001232B632C20618902F0C3F80C
S11363E02D20218902F0BFF8EB7A0BB1FFF798F862
S11363F0EB69194E002B05DDFFF756F8F369013BF5
S1136400F36114E001F04AFA01F090FA336B3BB106
S1136410606801F0B5FFFDF7D9FF0023336306E0A0
S113642002F042F94307FBD5622002F044F900234D
S1136430CAF80030CBF800304DE6084B4FF08072BC
S11364401A60FEF771F801F097FA01F03FF913B002
S1136450BDE8F08F480400101C0A001080E100E041
S113646010B5FFF715FB044C044B0920A361FFF79B
S11364703BFC0023637410BD1C0A0010514800004B
S113648010B5FFF705FB044C044B1220A361FFF782
S113649003FE0023637410BD1C0A0010DD460000D7
S11364A070B58EB014460D460646002101A832226E
S11364B0FDF762FE312C2246294628BF31220DF118
S11364C005008DF8046002F01BFE01A90520FDF70C
S11364D0D3FF0EB070BD000038B540F664123148E9
S11364E0314C03889BB293420DD140F635412F4B7A
S11364F01A682F4BC2F313021B6801FB0233636358
S113650040F6661348E040F6661103889BB28B425E
S113651044D140F63541254B408C1A68244BC2F3D4
S113652013021B6801FB0233626B1E4993423CBF9A
S113653003F1434303F5A0039B1A41F66A0202FBED
S1136540003343F2D4024243B3FBF2F3242B21D8A9
S1136550184A4008134493F8703825258B76013384
S1136560088493FBF5F005FB103300224B760320DF
S1136570114B8A84CA61E2724A61087601221A3197
S1136580A361A072FFF78CFFE37C53B1064B282272
S1136590DA6138BD40F66413A38100E0A2810123CF
S11365A0E37238BD480400101C0A0010C40B00102C
S11365B008400040509200005148000038B540F6B1
S11365C03544244B244A1B681268C3F3130304FBA9
S11365D0032446F2A712214DAB6B9C423EBF04F14B
S11365E04344A4F56514A4F5A254E31A934230D9A4
S11365F01B4A1B48D2F800118B4238BFC2F8003145
S1136600D2F80031174A03F5613303F25233B3FB76
S1136610F2F315499BB24A8C9A4215D1D0F8043151
S11366200133052BC0F8043112D1104B0220AB61A9
S113663040F66413AB810423AB722231012302467A
S1136640EB72FFF72DFF03E04B840023C0F8043105
S1136650AC6338BDC40B0010084000401C0A001095
S1136660080C0010A40E070048040010D9640000B0
S113667038B5184D01466B6953BB0379012B27D1FB
S113668044792CBBCB79007A1B0243EA0043887916
S113669002221843043100F03CFE23462246E860FF
S11366A020FA02F1C2F1170401F001010132A14004
S11366B0182A43EA0103F3D12B61074A074B01204F
S11366C09A61686106490322BDE83840FFF7E8BED5
S11366D038BD00BF48040010BD6500001C0A00104E
S11366E05404001030B50022124B53F8324003EB2F
S11366F0C201844203D14B6801334B6030BD013287
S1136700202AF1D14FF0FF310C46002203EBC205E1
S11367106D68A54201DB002C01DA11462C460132DA
S1136720202AF3D143F83100012203EBC1035A605C
S113673030BD00BF080C00102DE9F04194B00021D9
S11367400446402204A8FDF717FD01238DF81030FC
S11367508DF820308DF823308DF830308DF83230BC
S11367608DF840308DF842308DF843300027594D74
S1136770594E28886238C0B200F074FD335C0021A1
S113678004AA3A44F01812F801E090F82800013302
S11367908EEA000050547F22B3FBF2F20131C2EBC7
S11367A0C2121029A3EB0203EAD11037402FDED125
S11367B02027EE46494B0FCB8DE80F00002204AB97
S11367C003EB02110023E01910F803C0C85C8445F0
S11367D003D000234EF8223002E00133102BF2D113
S11367E00132042AEBD100235EF823201AB90133C5
S11367F0042BF9D14AE028886238C0B200F032FD97
S1136800315C00224FF0000CE64607EBC2080EEBA9
S113681008032344032A13F8203C0ADD701890F877
S11368202800013143407F20B1FBF0F0C0EBC010E1
S1136830091A03FA0EF30EF1010E43EA0C03BEF13A
S1136840080F5FFA83FCE2D1DFF8A880D8F80030A3
S113685003F802C001320A2AD4D1D8F80030DB7818
S1136860D8F800209278D8F8001012044878D8F8A4
S1136870001042EA036309780B4343EA0020FFF760
S113688031FFD8F800100120FDF7F6FD0137B7F508
S11368903C7F8ED10023124A02EBC30149680329CD
S11368A011DD52F83300FDF733FE0E4B0E4A00247F
S11368B09A620E4A20469A610D4904226C61FFF7E0
S11368C0EFFD204603E00133202BE4D1012014B076
S11368D0BDE8F0814804001050920000E89A0000DE
S11368E0080C00101C0A0010D94500007166000055
S11368F04C040010200D001038B5164CA37C0A2B54
S113690026D1154DFFF7EEF82B88DB0744BF40F680
S113691088132B802B6C4BB90F4B188880B200F076
S11369208BFE0E4B0A20A362FFF7ECF8A47CE4B2C2
S11369300A2C0DD100200A490422FFF7B1FD094AAF
S1136940044B20469A6100236B61FFF7CDF9D4E72D
S113695038BD00BF1C0A001048040010396700004D
S11369604C0400107166000038B5144690B9134603
S11369701070092203F8012F0E4AE11D12F8010DCF
S113698003F8010F8B42F9D1022323726372A372BD
S11369900B2500E00E25084B214618692A4600F015
S11369A09BFC6055030A2C44000CA0706370E81C27
S11369B038BD00BF420A00104804001070B58AB008
S11369C0002001466A46FFF7CFFF064600F0D0FEDE
S11369D00B4B9B7C112B11D10A4B4FF080754FF060
S11369E080641D6008481C6031466A46FEF77EFCE0
S11369F0064B1D601C60FEF715FBE9E70AB070BD8D
S1136A001C0A001080E100E0D6BE898E00E100E09F
S1136A107FB56A466D46224B03F108061446186892
S1136A205968083303C4B3422246F7D118689B88D7
S1136A302060A3800DF1010205231A49595C13F16A
S1136A40FF3302F8011FF8D2174B294618690B22AD
S1136A5000F042FC030A8DF80B00000C8DF80C309A
S1136A608DF80D0000F084FE104B9A7C0C2A11D195
S1136A700F4B4FF080764FF080641E600D481C6011
S1136A800E212A46FEF732FC0B4B1E601C60FEF7FB
S1136A90C9FAE9E79B7C112BEAD004B070BD00BFB2
S1136AA0F89A00003C0A0010480400101C0A001068
S1136AB080E100E0D6BE898E00E100E010B58AB026
S1136AC02D2001F047FD030A8DF805002C208DF8D8
S1136AD0043001F03FFD030A8DF806308DF80700FD
S1136AE000F0BCFC00F044FE01F0DEFD4106FBD5E5
S1136AF0612001F0E0FD01F0D7FD4207FBD5154B05
S1136B0010221C461A60144A802111604FF48071CF
S1136B1011600E2001F01EFD00F01F000F28F8D1B7
S1136B20622001F0C8FD0D4B02221A6001F0BCFD89
S1136B30C306FBD50223236002A9202001F06AFDCD
S1136B4001A90020FDF798FC054B186800F0E8FC4B
S1136B50DFE700BF38C0092058C009203CC0092025
S1136B60C40B001008B5202001F0F4FC08B1FFF7B5
S1136B70A5FF034B03221A70BDE80840FEF79CBD35
S1136B801C0A00102DE9F041354D10232D206E7C98
S1136B906B7401F0DFFC80462C2001F0DBFC314CEF
S1136BA0074621882D2001F0DEFC2C20618801F0AD
S1136BB0DAFC0320572101F0D6FC142041F24B31BA
S1136BC001F0D1FC202040F6617101F0CCFC0220E0
S1136BD0A18801F0C8FC0520E179F6B201F0C3FCFC
S1136BE001F062FD4106FBD5612001F064FD01F076
S1136BF05BFD4207FBD51C4B4FF480721A60802268
S1136C001A620E2001F0A6FC00F01F000F28F8D134
S1136C10A079164901F0BAFC632001F04CFD0E2066
S1136C2001F098FC00F01F000F28F8D1104B4FF42E
S1136C3080721A60642001F03EFD01F035FD4307C7
S1136C40FBD40C4B80221A602D20414601F08BFCB2
S1136C502C20394601F087FCAE74BDE8F08100BFFA
S1136C601C0A0010C80B001038C00920D00B0010FB
S1136C703CC009205CC009202DE9F0418EB03D4B99
S1136C8010221A6000F0EAFB00F072FD3A4B8022F9
S1136C901A60122042F6223101F065FC142041F200
S1136CA04B3101F060FC202040F2011101F05BFC4B
S1136CB00320292101F057FC01F0F6FC4106FBD525
S1136CC001F0F2FC00F0040000F0FF040028F7D10A
S1136CD02A4B9B7C042B47D1294B9846B3F84C5044
S1136CE0ADB2B8F84E309BB2AB42F1DB691E022064
S1136CF089B201F038FC612001F0DDFC01F0D4FC24
S1136D004207FBD5622001F0D6FC4FF4FA730093DE
S1136D10009E013E0096002EFAD104EB44070EAB10
S1136D201F4406202B0A07F8343C07F8335C01F0B3
S1136D3011FC0134E4B2000A102C07F8320C09D11A
S1136D4004200DEB0001FDF797FB0E4B3446186849
S1136D5000F0E6FB642001F0AEFC01F0A5FC430763
S1136D60FBD40135ADB2BCE7074B10221A600EB05C
S1136D70BDE8F08138C0092058C009201C0A001061
S1136D8048040010C40B00103CC009201FB5444B3C
S1136D90802218689B880290ADF80C30414B122079
S1136DA01A6042F6223101F0DEFB142041F24B312D
S1136DB001F0D9FB202040F2011101F0D4FB0320A3
S1136DC0292101F0D0FB0620F12101F0CCFB01F0D8
S1136DD06BFC4106FBD501F067FC00F0040000F0F9
S1136DE0FF040028F7D1304B9B7C072B56D104AB12
S1136DF003EB440333F8081C0220013989B201F083
S1136E00B2FB612001F057FC01F04EFC4207FBD5B8
S1136E10622001F050FC4FF4FA730193019B013B93
S1136E200193002BFAD1062001F094FB1F4B40F391
S1136E30072093F850305BB298420CDD012C07D048
S1136E4003D3022C16D11A4B13E04FF4807200E0E6
S1136E501022174B0BE0012C07D003D3022C09D1CD
S1136E60144B06E04FF4807200E01022114B1A60BC
S1136E7000E01C600134032394FBF3F303EB4303AE
S1136E80E41A0D4BE4B2186800F04AFB642001F0E8
S1136E9012FC01F009FC4307FBD4A4E704B010BDC5
S1136EA0069B000058C009201C0A0010480400106A
S1136EB038C009203CC00920C40B001008B501F0FB
S1136EC0B5FC00F05BFC434800F0A2FAFDF72CFB94
S1136ED0414B424C186800F023FBA27C637C9A422D
S1136EE0F6D0A37C122BF3D801A252F823F000BFF2
S1136EF0CD6E00004D6F0000576F0000836F0000DF
S1136F00AD6F0000916F0000A16F0000B36F00002F
S1136F10616F0000656F0000716F00003D6F00003D
S1136F20776F0000B96F0000496F0000C56F000063
S1136F30CF6F00007D6F00006B6F0000012001F037
S1136F4039FA01F07DFCC3E70E2300E001236374EA
S1136F50FEF7B2FBBCE702236374FEF75DFCB7E700
S1136F600823F4E7FFF77CFAB2E7FFF789FAAFE703
S1136F70FFF7C2FCACE7FFF74BFDA9E7FFF71EFDE7
S1136F80A6E7032315481649637400F015FF9FE72D
S1136F9005231348637400F005FD0023A37497E7E9
S1136FA006230F48637400F04BFE91E7FFF764FE7D
S1136FB08EE7FFF7EBFE8BE70D236374207D01F072
S1136FC067F985E70F236374FFF7CCFD80E7FFF7CC
S1136FD0D9FD7DE7C5490000C40B00101C0A001050
S1136FE048040010F0B5444B444A002000211B68BB
S1136FF0C2E90001002255004F2195FBF1F401FB89
S113700014513F48115401324F2AF4D13D4AC3F37D
S1137010C4511170C3F30715C3F3C7043A4AC3F349
S1137020C34105F0100704F0080611703E44C3F391
S1137030870103F0010EC3F34702764401F004070D
S1137040374402F002063E44304F05F008053E7016
S11370502F4EC3F3882737809E0906F02007DE09E8
S113706006F040065B093E4403F0100333442B440E
S113707004F00404234401F00201194402F0010263
S1137080244B0A441A70244B1B789BB300221346EA
S113709022490025545C4FF0000E54EA05075FFABC
S11370A08EF60EF1010E06D014F1FF3645F1FF37CE
S11370B034403D40F1E7013233440A2ADBB2E7D1E0
S11370C0174A137000231C464F2593FBF5F205FB6A
S11370D01232D6B2F5084D5D02F0070245FA02F20B
S11370E0D20748BF621C03F1020344BF0655D4B261
S11370F09E2BE9D1F0BD00BFC0100010180D001088
S11371002511001023110010D010001024110010BC
S1137110D21000107411001047100010AB0B0010B7
S1137120A90B0010F0B587B0C0F3D8044F2324F0A6
S11371300F04B4FBF3F203FB1242404BC0F34006CE
S11371401B78710183EA104303F01F038DB2891B7E
S113715059403B4B3B4E1B78367883EA505303EB44
S113716090037340384EC9B2368803F01F0386EA91
S1137170D010C0F30800002640FA06FE02AF0EF05D
S1137180010E06F807E00136092EF5D100204EB2B3
S113719007EB000E0641013006F0010605288EF8C3
S11371A00960F4D1002143FA01F000F001000DF868
S11371B0010001310529F6D10D217B5C83B1234BFC
S11371C006AEC85C0E33CB5C0DF1180E304473442C
S11371D010F8186C13F818EC00F818EC03F8186C95
S11371E011F1FF31E9D2002319461DF8010088404E
S11371F0013103440529DBB2F7D115494F20097841
S11372001944AB180B44B3FBF0F200FB1233114AE0
S1137210D05C114B1B786BB1104B1B78B4FBF3F2B1
S113722003FB124425440D44B5FBF3F403FB14554E
S11372300B4B585D00F6621007B0F0BD241100102E
S113724023110010D0100010D2100010199B000060
S1137250741100102511001047100010A90B001024
S1137260D410001040080AD00B2801D8013804E0DB
S11372700C2806D0262806D80238C0B2704725202C
S1137280704726207047272070470A2803D84000FB
S113729000F664107047242803D8400000F66610F6
S11372A07047252806D0262840F67A1018BF4FF4D8
S11372B01B60704740F66210704738B50446457D40
S11372C02846FFF7E2FFA37D25212B4493FBF1F22F
S11372D001FB1233637538BD70B50B4620F07F4057
S11372E05C1A944214DA13F8015B082485EA000658
S11372F016F0010F4FEA50001EBF40F4000080F466
S1137300B40080F4C040013C4FEA5505EED1E7E7F4
S113731070BD70B5013A002A14DB8E5C0724C50DDC
S1137320400020F07F4346FA04F000F0010068407A
S113733018431DB180F4340080F4404014F1FF344C
S1137340EDD2E7E70023194620FA03F2C3F117044C
S113735002F001020133A240182B41EA0201F3D1E9
S1137360084670BD30B50C4620F07F40631A934246
S113737009DA14F8013B044D4340DBB255F82330DD
S113738083EA1020F2E730BD9C04001013B50B46CD
S113739041881268ADF8041081884078ADF8061071
S11373A004490C6801A9A047431E5842584102B041
S11373B010BD00BF7C32001010B586B0044669468B
S11373C001A801F075FA9DF80430F3B920460DF1D7
S11373D00501403411F8013B04301A09092A03F06D
S11373E00F038CBF57323032092B80F8782088BFC6
S11373F057334FF0000298BF303380F8792080F87B
S11374007A3080F87B20A042E4D106B010BD0000A1
S113741038B505460C4C01F027FB2046FFF7CCFF9E
S1137420204601F061FD094B094A022009491D600B
S113743001F010FB0849FF2001F040FD012001F09C
S1137440AAFB002038BD00BF9C0800107C3200104D
S1137450783100108D730000359B0000044B00212F
S113746004484FF4005219605960FCF785BE00BF10
S1137470580A0010781100100A4B1968586801F076
S11374807F0100F07F00421C02F07F0291421FBF87
S11374905A6801325A60044B14BF03EB8010002079
S11374A0704700BF580A001078110010084B186884
S11374B05A6800F07F0002F07F0290421FBF1A68F2
S11374C001321A60034B14BF03EB80100020704795
S11374D0580A00107811001037B50546FFF7E6FF8B
S11374E00D4B044638B18220214640229D6001F0B4
S11374F083FB01200EE09A680849AA1A8A4208D937
S1137500032202A901F8012D822001229D6001F0CD
S113751073FB204603B030BD580A0010801A0600E1
S113752038B50446822001F041FB8206054602D4A8
S11375302046FFF7D1FF6B0602D42046FFF7CCFFAD
S1137540BDE8384001F0C8BB08B59E2207480021B9
S1137550FCF712FE064A00231370064A1360064B1A
S113756080221A70054B7F221A7008BD640A00102D
S11375704610001080320010A80B0010AA0B001057
S11375800B4A92F900308342B8BF03461370094A8C
S113759092F900308342A8BF03461370064A136869
S11375A003EB00231360054A13780133137070470B
S11375B0A80B0010AA0B0010803200104610001017
S11375C010B540F66213B0F51B6F38BF18460D4B6B
S11375D0A0F662101B7823B10B4A1268803292FB2A
S11375E0F3F30A4903EB430331F91020FD2404FBB0
S11375F002334FF48072803393FBF2F321F810309E
S113760010BD00BF4610001080320010640A001044
S113761040F66213B0F51B6F38BF1846054BA0F651
S1137620621033F910004FF48073803090FBF3F054
S113763040B27047640A001038B5154D2C7863B217
S1137640002B05DDFFF7E4FF2C78363C2044C4B260
S113765064B26FF077008442B8BF04466FF013033E
S11376609C42A8BF1C46E4B204F1380141F0030176
S11376700620C9B200F077FF064B1C7064B214F107
S1137680770F054BACBF002401241C7038BD00BF2C
S113769048100010BC100010100D0010074B002201
S11376A01A70074B4FF400121A60064B04221A603A
S11376B0054A136843F0040313607047BD100010BB
S11376C000E100E0AC800240B4800240074A136845
S11376D023F004031360064B04221A60054B4FF495
S11376E000121A60044B00221A707047B4800240E2
S11376F0AC80024080E100E0BD10001008B5FFF747
S1137700E5FF044B00221A70034A88231370034ACE
S1137710137008BD100D001048100010BC100010AC
S11377200A4B02221A600A4A00231360094A1360B2
S1137730094A1360094A1380094A1380094A1380CD
S1137740094A1360094A1360704700BF04400040AF
S1137750C40B0010A00B0010B80B0010120D001089
S113776044100010C00B0010BC0B00107C10001063
S1137770014B01221A6070470440004008B5FFF72E
S1137780CFFF064B04221A6040F63442DA6003222B
S11377909A60034B02221A6008BD00BF0C400040EF
S11377A000E100E0154B4FF080621A60144A002398
S11377B01360136213641366C2F88030C2F8A030F9
S11377C0C2F8C030C2F8E030FF23A2F5847213601F
S11377D093600C4B1A6822F001021A601A4613686F
S11377E013F00103FBD1084A1360084A1360084AE6
S11377F0084B1A60084A094B1A60704780E100E0A0
S11378001041005030400050A40B0010B81000107C
S113781085100010040C001049100010200D0010F9
S113782008B5144A136843F000531360FFF7BAFF16
S1137830114B124A12485A60124A134910601860D8
S113784012489A60D16050609360114AD960012156
S113785011601168C907FCD519680E4A116059688E
S1137860516099689160DA680B4B1A604DF2060218
S11378705A6008BDC4C00F40443300108510001086
S1137880080003403433001032900088491000107F
S113789030400050004100500C41005008B51A4AD5
S11378A0136843F000531360FFF77CFF174B01226A
S11378B01A601A68D207FCD5154B002215490A2A0A
S11378C043F8101C144901EB820143F80C1C14BF4B
S11378D01946002143F8081C013210490B2A43F8C9
S11378E0041C03F11003E9D10D4B0E4A1968116011
S11378F05968516099689160DA680B4B1A604DF2CF
S113790006025A6008BD00BFC4C00F40304000509A
S11379109432001008000340851000100410008801
S113792084320010004100500C4100500D4B0E49B0
S11379304FF080521A600B6843F001030B6051F85A
S1137940203C43F0020341F8203C08490B6843F013
S113795001030B60064B4FF080611960054B1A6000
S1137960704700BF98C00920240003401041005014
S113797000E100E09CC00920084B4FF080521A60DF
S1137980074A136823F00103136052F8203C23F0E4
S1137990020342F8203CFFF705BF00BF98C009204E
S11379A0240003402DE9F04798B000AF152387F871
S11379B04830002387F8493082463A2307F16000B3
S11379C040F8583D984B07F11C011B68C7F804D0D8
S11379D098473A7F002A40F022813B6A1220190E10
S11379E087F84A10190C87F84B1087F84D30190A9C
S11379F07B6A87F84C10190E87F84E10190C87F81B
S1137A004F1087F85130190ABB6A87F85010190EC5
S1137A1087F85210190C87F8531087F85530190A53
S1137A20FB6A87F85410190E87F85610190C87F85A
S1137A305710190A87F8581087F8593042F622313E
S1137A40FF2387F85A2087F85B2087F85C3087F893
S1137A505D3000F088FD142041F24B3100F083FDCD
S1137A60202040F6F15100F07EFDBAF8001002200B
S1137A7089B200F078FD2D204FF6AE1100F073FDB1
S1137A802C2041F2845100F06EFD0520082100F005
S1137A906AFD0320292100F066FD00F005FE420680
S1137AA0FBD5612000F007FE00F0FEFD4307FBD587
S1137AB05E4B4FF4807298461A605D4A80211160D3
S1137AC00024E5B2052045F0080100F04CFD002635
S1137AD087F85A5087F85B600E2000F03BFD00F0F9
S1137AE01F000F28F8D14FF0000907F1480515F8D9
S1137AF00910702009F1010900F043FDB9F1160FD6
S1137B00F3D16320013600F0D6FD102EE2D101340A
S1137B10082CD6D10E2000F01DFD00F01F000F2808
S1137B20F8D1444C4FF480732360642000F0C3FD0B
S1137B3000F0BAFD4607FBD4BAF800100220013960
S1137B4089B200F010FD00F0AFFD4006FBD56120C6
S1137B5000F0B1FD00F0A8FD4107FBD51023C8F8E3
S1137B6000300E2000F0F6FC00F01F000F28F8D1C2
S1137B70622000F0A0FD00F097FDC206FBD50223B1
S1137B80C8F800304FF00009702000F0F1FC07F154
S1137B90300606F8090009F10109B9F1160FF3D10D
S1137BA000F082FD030702D402232360D9E70E20EC
S1137BB000F0D0FC00F01F000F28F8D1642000F082
S1137BC07AFD00F071FD00F0040000F0FF030028CE
S1137BD0F7D1194A802111601022226097F84200DF
S1137BE0164A0121507097F8430087F849109070A5
S1137BF097F84400D07097F84500107116F803E028
S1137C00E85C864518BF991C03F1010318BFC9B28B
S1137C10122BF3D1022311702360D7F804D06037FC
S1137C20BD46BDE8F08700BFB09B000038C0092006
S1137C3058C009203CC009205CC0092080100010F5
S1137C402DE9F04387B08046122042F6223100F03D
S1137C508AFC142041F24B3100F085FCB8F8001086
S1137C600220013989B200F07EFC2D204FF6AE11BE
S1137C7000F079FC2C2041F2845100F074FC0520C2
S1137C80082100F070FC0320292100F06CFC00F0B6
S1137C900BFD4106FBD5612000F00DFD00F004FD55
S1137CA04207FBD5414C424EA14637461023336070
S1137CB04FF480732360022323603E4B80221A60BA
S1137CC00E2000F047FC00F01F000F28F8D102231B
S1137CD0C9F80030622000F0EEFC00F0E5FCC306B9
S1137CE0FBD502233B600025702000F041FC0DF819
S1137CF005000135162DF7D100F0D6FC0507DFD5B8
S1137D000223236010232360642000F0D4FC00F0DD
S1137D10CBFC4007FBD400F0C7FC4106FBD5B8F808
S1137D200010022089B200F01EFC00F0BDFC4206E7
S1137D30FBD5612000F0BFFC4FF480733360152342
S1137D408DF8003001238DF801300025EEB246F0A5
S1137D500801052000F007FC8DF8146000268DF85A
S1137D6015600E2000F0F6FB00F01F000F28F8D17C
S1137D7000271DF807107020013700F002FC162FB1
S1137D80F7D16320013600F096FC102EE7D10135BF
S1137D90082DDBD14FF480732360642000F08BFC4A
S1137DA000F082FC4307FBD44EE700BF3CC009202F
S1137DB038C0092058C0092038B503780D4623B1CE
S1137DC00378012B2FD1402400E02924122042F60D
S1137DD0223100F0C8FB142043F24B3100F0C3FB06
S1137DE0202040F6F15100F0BEFB2988022089B220
S1137DF000F0B9FB0320214600F0B5FB00F054FC71
S1137E004206FBD5612000F056FC00F04DFC430710
S1137E10FBD5054B4FF480721A60632000F04BFCD5
S1137E20024B80221A6038BD38C0092058C009208E
S1137E30044B4FF080521A60034A136823F0020384
S1137E401360704798C0092004000340431E233088
S1137E50054A12685207FBD5044A126803F8012F39
S1137E608342F5D1704700BF0C0003400800034073
S1137E7010B540F63544074B1A68074BC2F313029A
S1137E801B6804FB0233836042F210735943C160E0
S1137E9010BD00BFC40B00100840004040F635413F
S1137EA00A4B1A680A4BC2F313021B6801FB023324
S1137EB08268C06893423CBF03F1434303F5A003C7
S1137EC09B1A834234BF002001207047C40B00106A
S1137ED0084000407047000040F6681200234360E9
S1137EE0024B1A8001230370704700BF480400103E
S1137EF0012303707047000010B547F6FF71044674
S1137F000D2000F030FB122042F6223100F02BFB52
S1137F10142041F24B3100F026FB20204FF49861ED
S1137F2000F021FB1D4B02201988013989B200F0B1
S1137F301AFB0320262100F016FB2120032100F068
S1137F4012FB2D2046F20F3100F00DFB2C2049F6D8
S1137F50FE7100F008FB00F0A7FB4206FBD5104BB6
S1137F604FF080520F491A600B68612043F00203FE
S1137F700B600D4B1A6000F09EFB00F095FB43076D
S1137F80FBD50E2000F0E6FA00F01F000F28F8D110
S1137F90622000F090FB0223237010BD48040010FF
S1137FA098C00920040003409CC0092010B547F67E
S1137FB0FF7104460D2000F0D6FA122042F6223159
S1137FC000F0D1FA142043F24B3100F0CCFA202017
S1137FD04FF4986100F0C7FA1A4B0220198889B24D
S1137FE000F0C1FA0320262100F0BDFA212003216C
S1137FF000F0B9FA05200F2100F0B5FA00F054FBA7
S11380004206FBD5612000F056FB00F04DFB430710
S1138010FBD50E2000F09EFA00F01F000F28F8D1C7
S1138020094B80221A60632000F045FB074B4FF494
S113803080721A6005232370A369A36044F6206349
S1138040E36010BD4804001058C0092038C009205E
S113805010B50446FFF722FFC0B1636820465A1CDE
S11380600B4B07211340002BBCBF03F1FF3363F01C
S11380700303084AB8BF013332F813206360064B88
S11380801A80FFF7F5FE01232361237010BD00BFA2
S1138090030000805C9B00004804001010B50446F7
S11380A0FFF7FCFE30B1012323702361A369A360B1
S11380B0014BE36010BD00BFB0AD010010B5044634
S11380C0FFF7ECFE10B3642000F0F5FA104B8022A9
S11380D01A604FF4807243F8202C63685A1C0D4BCD
S11380E01340002BBCBF03F1FF3363F003030A4AC0
S11380F0B8BF013332F813206360084B1A8003239E
S11381002370A369A3604EF66023E36010BD00BF33
S11381105CC00920030000805C9B00004804001040
S113812010B58AB0002128226846FCF725F840F6ED
S11381303541164B1A68164BC2F313021B6801FB38
S11381400233099300F0B0FAC2061DD5114B102476
S11381501C606846FFF77AFE06206946099AFCF718
S11381606FFF0D4B61201C6000F0A5FA00F09CFA33
S11381704307FBD50E2000F0EDF900F01F000F2897
S1138180F8D1622000F097FA0AB010BDC40B0010B9
S11381900840004038C009203CC0092010B50446FE
S11381A000F082FAC3060ED540F63541042323704D
S11381B001236361104B1A68104BC2F313021B684E
S11381C001FB0233A36123695BB12046FFF766FE1E
S11381D038B1042323700023636120460B21FFF789
S11381E047FE2378022B06D0642000F064FABDE831
S11381F01040FFF71DBE10BDC40B00100840004026
S113820030B58BB00021044628226846FBF7B4FF42
S113821040F635411A4B20461A681A4BC2F3130232
S11382201B6801FB02330993FFF738FE28B120468F
S11382300421FFF71DFE0323237000F035FAC30663
S113824012D5114B10251D606846FFF7FFFD6946E6
S1138250099A0620FCF7F4FE0C4B20461D6006210B
S1138260FFF706FE032323702378022B06D0642035
S113827000F021FAFFF7DCFD012323610BB030BDD0
S1138280C40B00100840004038C009203CC009203D
S113829030B589B00446002101A81C22FBF76CFF0D
S11382A0012C144D05D006D3022C06D000232B70CC
S11382B01DE0114C02E0114C00E0114C114B4FF049
S11382C080721A6000F0C0F82B780D2B06D19DF84F
S11382D0043001A854F823309847F5E7642000F0EF
S11382E0EAF9FFF7A5FD084B4FF080721A6009B058
S11382F030BD00BF2E0A0010809B0000649B00006C
S1138300989B000000E100E080E100E000F0E4BCA4
S113831008B50D4A0D4B0E498B4204D252F8041F86
S113832043F8041BF7E70B4B0B4A934203D200229A
S113833043F8042BF8E7FBF7F7FE084B084A1A60EA
S1138340FEF7BCFDFEE700BFFC9B00002000001010
S1138350FD090010000A00105433001008ED00E07D
S113836000400000FEE70000044B0A221A601A686D
S1138370013A1A60002AFAD1704700BF040B0010BA
S113838090FAA0F070470000830803EBD00303EBDE
S1138390901303EBD01303EB902303EBD020044B97
S11383A058605A68013A5A60002AFAD1704700BFEF
S11383B0040B0010014B5843FFF7E6BF40420F0087
S11383C0104A0023136053609360D3601361D36138
S11383D0536293620C4A1360136213641366C2F807
S11383E080300A4A136053609360D3601361D36191
S11383F05362074A1360136213641366C2F8803031
S1138400704700BF00C0024000C0092040C00240C5
S113841014C0092008B5FFF7D3FF4CF21271094AC2
S113842000231360116240F2B11111644FF0405106
S11384301366C2F880105361536353655367C2F8DF
S1138440943008BD00C00920114B1A6822F4404240
S113845042F400421A601A6822F4405242F4005274
S11384601A601A6822F4403242F400321A601A6820
S113847022F4402242F400221A60064B4FF080524C
S11384801A60054BC7221A600C225A60704700BF5D
S113849000C0024098C0092000000340094A136844
S11384A023F470131360084A136823F0C063136045
S11384B0064B1A6842F420121A601A6822F4A012B9
S11384C01A60704704C0024000C0092044C0024042
S11384D030B50125431E9D400D4B20220138C0B20A
S11384E0FF281A600B4C0FD029424FF0010214BF31
S11384F022601A6010222260074C49002468A407F5
S113850048BF41F00101E9E720232360084630BD5C
S11385105CC0092058C0092054C0092010B50A4C79
S1138520FFF7BCFF4FF4007323603220FFF72CFFEA
S1138530064B20221A604FF480432360182004491C
S1138540BDE81040FFF7C4BF38C0092058C0092057
S1138550FF7F0D0008B540F0800109041820FFF7E3
S1138560B7FF80B208BD41EA00411820FFF7B0BF51
S113857008B540F0800109021020FFF7A9FFC0B23E
S113858008BD41EA00211020FFF7A2BFF8B51F4B38
S113859020221A60702508221D4C15F0800F4FF020
S11385A0010602F1FF3214BF26601E606D00102622
S11385B012F0FF022660EDB21E60EDD10E46721A73
S11385C0D2B2824214D216F8015B082215F0800F51
S11385D04FF0010702F1FF3214BF27601F606D00E6
S11385E0102712F0FF022760EDB21F60EED1E6E71C
S11385F00822013A102112F0FF0221601960F8D11B
S1138600FFF7B2FE024B20221A60F8BD5CC00920BD
S113861058C009202DE9F843204D20232B60F02277
S11386200823DFF8808012F0800F4FF0010403F17B
S1138630FF3314BFC8F800402C605200102413F01C
S1138640FF03C8F80040D2B22C60EAD1013801F12E
S1138650FF390E18B1451AD008270024FFF784FE0D
S11386601023C8F800300E4B64001B68E4B29B076B
S113867007F1FF3748BF44F00104FFF775FE1023EC
S113868017F0FF072B60E9D109F8014FE2E7FFF784
S11386906BFE2023C8F80030BDE8F8835CC00920D5
S11386A054C0092058C0092008B500210820FFF74C
S11386B00FFFC0B208BD08B501460820FFF708FF48
S11386C0C0B208BD08B518200021FFF701FF002043
S11386D0FFF740FF0028FAD118204FF40041FFF7BC
S11386E0F7FE0020FFF736FFB0F5004FF9D108BDC3
S11386F02DE9F04144F23A023E4B3F4F1A603F4DA0
S113870000233B602B683E4C23F002032B60AA231A
S11387102360552323603B4E33689801FBD42B68B8
S113872023F001032B60AA232360552323603368BD
S113873013F08073FBD1DFF8F080C8F80030FFF746
S1138740C1FF18203049FFF7C3FE6020FFF7B3FFD5
S1138750FFF7AAFF4106FBD52C4B20221A601A68AA
S11387605206FCD52A4B08221A6000225A600123C3
S11387703B60284A284BAA211A60552221602260B6
S11387802B6843F001032B60216022603368DF0112
S1138790FCD50323C8F800302B6843F002032B6098
S11387A0AA2323605523236033689D01FCD51B4B0A
S11387B022221A60AA2408335520194A1C60186022
S11387C0116841F0010111601C60186015490868C6
S11387D0C405FBD508684005FCD5106840F00200CC
S11387E01060AA221A6055221A600B689B05FCD5FA
S11387F0BDE8F08100C00F400CC10F4080C00F40A5
S11388008CC00F4088C00F4070150800A0C10F40F5
S1138810A8C10F401800010084C00F40A4C00F403D
S1138820A0C00F40A8C00F4004C10F4008B5FFF717
S1138830F1FDFFF773FEBDE80840FFF759BF0000E4
S113884008B5FFF7BDFD094B02221A604FF08042C4
S11388501368074843F003031360064BAA221A6007
S113886055221A60BDE80840FFF78EBD3CC00920C0
S113887040420F000800004030B58BB00446362358
S11388800AA80D4640F8283D05A9084B9847059BC2
S11388902370069B1A0A6370A2701A0C1B0E2371B4
S11388A00523E2702B600BB030BD00BFF11FFF1F2A
S11388B030B58BB004463A230AA80D4640F8283D4B
S11388C005A9144B9847059B2370069B1A0A6370ED
S11388D0A2701A0C1B0E2371079BE2701A0A6371B3
S11388E0A2711A0C1B0E2372089BE2711A0A63729E
S11388F0A2721A0C1B0E2373099BE2721A0A637389
S1138900A2731A0C1B0E23741123E2732B600BB099
S113891030BD00BFF11FFF1F00B58BB039230AA87B
S113892040F8283D05A9024B98470BB05DF804FBBD
S1138930F11FFF1F38B5084C802025686168402D61
S1138940A8BF40252A4600F057F963682B446360AA
S113895023685D1B256038BD0C0B001037B5114B27
S11389601C7A1D46C4F34114022C0DD1002202A925
S113897041F8042D03F1080003F11002043300F060
S113898069FA08B101980AE005EB840463692BB124
S1138990054800F10801021F984700E0184603B09B
S11389A030BD00BF0C0B0010140B001010B50028D4
S11389B04AD101F0040303F0FF01254C0BB3082254
S11389C004F1080100F04CF9227AC2F3411304EBDC
S11389D083035B6A6360E389236023610BB1D3097A
S11389E034D0FFF7BBFF28B9BDE810408020012137
S11389F000F0F6B8E28923699A42D4BF226023606A
S1138A0019E02268002A1ADD616800F029F90028BB
S1138A10EADB6368034463602368181A2060A8B91A
S1138A20237AC3F3411304EB83035B6A6360FFF7A8
S1138A3095FF0028D8D0BDE81040FFF77BBF0A4659
S1138A40BDE8104000F00CB98028F4D010BD00BF80
S1138A500C0B0010024B03EB800041614262704733
S1138A600C0B00107047000010B50E4C00F09AF982
S1138A700D4800F07FF82146002000F061F82146FF
S1138A80802000F05DF80020402100F03BF88020B9
S1138A90402100F037F800200449054AFFF7DAFFC7
S1138AA0012010BDAD890000658A00004D8F0000D3
S1138AB0400B0010034B1B6803408342FAD1024B66
S1138AC01860704700C2005008C20050044B0004F4
S1138AD040F4A06030221A6098601020FFF7EABFCB
S1138AE008C2005010B50C46FFF7F0FF2404044BF5
S1138AF044F480741C601020BDE81040FFF7DABF16
S1138B0010C2005010B500F00F04C00940EA44043C
S1138B10094801230268A34013430360074B4FF441
S1138B2080701C605960FFF7C5FF44F040000021CD
S1138B30BDE81040FFF7D6BF44C2005048C2005001
S1138B40094A00F00F0342F823100849C0090A68D3
S1138B5040EA4300012383401343054A0B60136832
S1138B6043F0040313607047480B001034C20050F4
S1138B7004C20050034B044A1864136843F008030A
S1138B8013607047480B001004C2005040F080018D
S1138B90D020FFF7A7BF011C18BF0121FE20FFF75B
S1138BA0A1BF0146F320FFF79DBF000010B500F000
S1138BB00F04C00940EA44042046FFF787FF240459
S1138BC0054B44F400741C602020FFF773FF034B33
S1138BD01868C0B210BD00BF10C2005014C20050CB
S1138BE000F00F03C00940EA4300003140F04000A8
S1138BF018BF0121FFF776BF38B5154600F00F0303
S1138C00C00940EA4300134A9B0043F00203136087
S1138C10114B1D601368043113F0020310D011F8D6
S1138C20023C11F8014C1B0443EA046311F8044CA0
S1138C30234311F8034C43EA0423084C2360E9E777
S1138C40044A1360FFF742FFFA20FFF73FFF28466C
S1138C5038BD00BF28C2005024C200501CC20050BE
S1138C6070B5174C00F00F032646C00940EA4300D4
S1138C709B0043F001032360124B1B681D05FBD5C9
S1138C805C051AD500252C46C3F309039C420BD07E
S1138C9014F0030F04BF0C4D2D6811B1944238BF7A
S1138CA00D552D0A0134F1E700233360FFF70EFF61
S1138CB0F220FFF70BFF204670BD4FF0FF3070BD70
S1138CC028C2005020C2005018C20050011C18BF16
S1138CD00121D820FFF706BF38B5294B1C68E107EE
S1138CE011D501229A60274B5D6C65B1F520FFF721
S1138CF0EDFE254B254A20201A60FFF7DBFE244BAE
S1138D001868C0B2A847220717D5224B08221A6058
S1138D10FE20FFF7DBFE1C4B1F4A20201A60FFF7E2
S1138D20C9FE1B4B1868C0B210F01A0F05D0154BC2
S1138D301B6C13B100F01500984763071ED5154B43
S1138D4004221A600024154A01231268A340134226
S1138D5011D0134A20201360FFF7ACFE0C4B6010B7
S1138D601968084B53F820302BB140EAC410C0B244
S1138D7001F01F0198470134202CE4D138BD00BF15
S1138D8000C20050480B001010C200500002F50051
S1138D9014C2005008C200500002FE0030C200504D
S1138DA038C2005008B5254A136823F4402343F41D
S1138DB08023136052F8043C23F0300343F0100383
S1138DC042F8043C52F8043C23F0405343F000536F
S1138DD042F8043C52F80C3C23F0406343F08063B7
S1138DE042F80C3C52F80C3C23F0405343F08053BF
S1138DF042F80C3C02F55022B432136843F00043AD
S1138E0013600F4A136843F0120313600D4B1A6882
S1138E109107FBD51A68D206FCD50B4B00200B4AF0
S1138E2018604FF0FF3313605062D0621363084B35
S1138E301860FFF7B6FE012008BD00BF10C0024055
S1138E40F4CF0050F8CF005004C2005008C20050C4
S1138E5040C2005070B5164C2578002415B34678EE
S1138E60AE4221D10C60C68844888088042805D08D
S1138E7005281BD10F481860922002E00E481860A4
S1138E8028201060200A1468000484420EDB1D6848
S1138E900544201A1D60B042D4BF10601660012042
S1138EA0086070BD284670BD204670BD012070BDAD
S1138EB0900B001059090010B49B0000084B187067
S1138EC061B1084B4A1E253112F8010F18B18A42CC
S1138ED003F8020BF8D100221A709A70704700BF91
S1138EE0900B00109B090010014B5860704700BFA5
S1138EF0900B0010F0B5060A032EC4B2114808D135
S1138F00EE2C06D1104900789231087419601223AE
S1138F1012E04168002501E001350144087880B180
S1138F204F78B742F9D1A542F6D1022E196006D185
S1138F30C8788B7843EA002313600120F0BD0B78D6
S1138F40FAE7F0BD900B0010590900102DE9F04725
S1138F504B4E0546B3680F461446B04643B92878CD
S1138F6000F01F06012E55D006D3022E64D083E0F4
S1138F7098470028F3D04AE06A782368092A7BD806
S1138F80DFE802F0057A7A7A7A090D7A151C002254
S1138F901A705A7047E0A878FFF7F8FD37E0688840
S1138FA0A9883A462346BDE8F047FFF7A3BF98F8DF
S1138FB00C2001201A703860BDE8F087AE780EB935
S1138FC030461FE0FF27B946D8F804402378C3B1E0
S1138FD06378042B06D0052B06D0022B0ED194F80F
S1138FE005900BE0E77809E0B14507D137B961791D
S1138FF02379A07843EA0121FFF784FD23781C44F8
S1139000E4E70120FFF762FE6B8888F80C3001204A
S1139010BDE8F0876B7822680A2B06D00B2B07D0AB
S113902053BB13705370022304E00023137016E043
S11390306B880BBB3B60EAE7D4F800806C78012CAA
S11390400FD002D3032C10D016E02879FFF7AEFD21
S11390500023C0F3400088F8000088F801303E6027
S1139060D5E7698841B9287903E06B8823B9287961
S11390700121FFF7B5FDCAE70020BDE8F08700BF76
S1139080900B00109140031C90409C46203A934062
S1139090194352426346D34019437047032A70B4BC
S11390A026D940EA01039B0711D004780D78AC421D
S11390B022D10244431C05E013F8014B11F8015F6F
S11390C0AC4219D19342F7D1002070BC70470C46D2
S11390D003461E6825681846AE42214603F1040380
S11390E004F1040404D1043A032A18462146F0D8B2
S11390F0002ADAD11046E8E7601B70BC704700BF55
S1139100844641EA000313F0030349D1403A23D3D0
S11391100B6803604B6843608B688360CB68C360F3
S11391200B6903614B6943618B698361CB69C361DB
S11391300B6A03624B6A43628B6A8362CB6AC362C3
S11391400B6B03634B6B43638B6B8363CB6BC363AB
S113915040304031403ADBD230320BD30B680360ED
S11391604B6843608B688360CB68C36010301031F8
S1139170103AF3D20C3205D351F8043B40F8043BC7
S1139180043AF9D2043208D0D2071CBF11F8013BCB
S113919000F8013B01D30B8803806046704700BF91
S11391A0082A13D38B07B1D010F00303AED0C3F158
S11391B00403D21ADB071CBF11F8013B00F8013B82
S11391C0A4D331F8023B20F8023B9FE7043AD9D3F9
S11391D0013A11F8013B00F8013BF9D20B78037016
S11391E04B7843708B7883706046704720F003019E
S11391F010F00300C0F1000051F8043B00F1040C2E
S11392004FEACC0C6FF000021CBF22FA0CF213439D
S11392104FF0010C4CEA0C2C4CEA0C4CA3EB0C0266
S113922022EA030212EACC1204BF51F8043B0430D0
S1139230F4D0C2F1000102EA0102B2FA82F2C2F1F0
S11392401F0200EBD2007047430000002000001012
S1139250463E786F4D2E0F6542271F1A50537D5995
S11392600A2308367A1121003A73065E5631341403
S1139270281B545A3F702F660101010100010001AF
S113928000010000000001000101000101010100D2
S113929000010101000001000100010100000101C1
S11392A000000000000101000101000100010101B2
S11392B000010000000101000001000000010000A5
S11392C00000000001000001000001010001000095
S11392D0010101010001010100000000010101017F
S11392E00101010000000101010001010000000171
S11392F00001000001000175626572746F6F74688B
S1139300206769742D316565383433342A20286127
S113931068657368616D406168657368616D292073
S1139320546875204170722032372031323A353317
S11393303A3439204544542032303137000000009B
S113934040B2BCC31F374A5F85F69C9AC1D6C54458
S11393502059DEE18F1BA5AF427B4ECD60EB62222C
S1139360902CEFF0C78DD257A13DA766B07531118F
S11393708940B2BCC31F374A5F85F69C9AC1D6C5E3
S1139380442059DEE18F1BA5AF427B4ECD60EB62DA
S113939022902CEFF0C78DD257A13DA766B075314E
S11393A0D257A13DA766B0753111489677F8E346C8
S11393B0E9ABD09E5333D8BA980824CB3BFC71A3B5
S11393C0F45568CFA9196C5D4C0492E51DFEB851A3
S11393D01BA5AF427B4ECD60EB6222902CEFF0C711
S11393E08DD257A13DA766B0753111489677F8E341
S11393F046E9ABD09E5333D8BA980824CB3BFC71D2
S11394006479873F6E94BE0AED393583AD8B89400C
S1139410B2BCC31F374A5F85F69C9AC1D6C54420A7
S113942059DEE18F1BA5AF427B4ECD60EB622290EB
S1139430AD8B8940B2BCC31F374A5F85F69C9AC185
S1139440D6C5442059DEE18F1BA5AF427B4ECD60CB
S1139450EB6222902CEFF0C78DD257A13DA766B0E6
S1139460F69C9AC1D6C5442059DEE18F1BA5AF42B4
S11394707B4ECD60EB6222902CEFF0C78DD257A1CA
S11394803DA766B0753111489677F8E346E9ABD04D
S11394903F6E94BE0AED393583AD8B8940B2BCC3AF
S11394A01F374A5F85F69C9AC1D6C5442059DEE130
S11394B08F1BA5AF427B4ECD60EB6222902CEFF068
S11394C00824CB3BFC71A3F45568CFA9196C5D4CFF
S11394D00492E51DFEB851FA2AB4E7D40CB62E2640
S11394E002C9F20E7FDC287D15DA736A065B171356
S11394F0C1D6C5442059DEE18F1BA5AF427B4ECDBA
S113950060EB6222902CEFF0C78DD257A13DA76685
S1139510B0753111489677F8E346E9ABD09E5333E2
S11395209AC1D6C5442059DEE18F1BA5AF427B4EBC
S1139530CD60EB6222902CEFF0C78DD257A13DA7EE
S113954066B0753111489677F8E346E9ABD09E537F
S11395505333D8BA980824CB3BFC71A3F45568CF95
S1139560A9196C5D4C0492E51DFEB851FA2AB4E7C2
S1139570D40CB62E2602C9F20E7FDC287D15DA73D0
S11395802CEFF0C78DD257A13DA766B075311148B5
S11395909677F8E346E9ABD09E5333D8BA980824BB
S11395A0CB3BFC71A3F45568CFA9196C5D4C0492B4
S11395B0E51DFEB851FA2AB4E7D40CB62E2602C92A
S11395C0F20E7FDC287D15DA736A065B171381645B
S11395D079873F6E94BE0AED393583AD8B8940B2ED
S11395E0BE0AED393583AD8B8940B2BCC31F374AFF
S11395F05F85F69C9AC1D6C5442059DEE18F1BA530
S1139600AF427B4ECD60EB6222902CEFF0C78DD23F
S113961077F8E346E9ABD09E5333D8BA980824CB05
S11396203BFC71A3F45568CFA9196C5D4C0492E519
S11396301DFEB851FA2AB4E7D40CB62E2602C9F29C
S1139640D09E5333D8BA980824CB3BFC71A3F4556D
S113965068CFA9196C5D4C0492E51DFEB851FA2A35
S1139660B4E7D40CB62E2602C9F20E7FDC287D1591
S1139670196C5D4C0492E51DFEB851FA2AB4E7D486
S11396800CB62E2602C9F20E7FDC287D15DA736A29
S1139690065B1713816479873F6E94BE0AED3935F2
S11396A0427B4ECD60EB6222902CEFF0C78DD257F7
S11396B0A13DA766B0753111489677F8E346E9AB4A
S11396C0D09E5333D8BA980824CB3BFC71A3F455ED
S11396D08B8940B2BCC31F374A5F85F69C9AC1D6BA
S11396E0C5442059DEE18F1BA5AF427B4ECD60EB14
S11396F06222902CEFF0C78DD257A13DA766B075BA
S1139700F45568CFA9196C5D4C0492E51DFEB8515F
S1139710FA2AB4E7D40CB62E2602C9F20E7FDC284E
S11397207D15DA736A065B1713816479873F6E943B
S11397303DA766B0753111489677F8E346E9ABD09A
S11397409E5333D8BA980824CB3BFC71A3F45568D4
S1139750CFA9196C5D4C0492E51DFEB851FA2AB4E8
S113976066B0753111489677F8E346E9ABD09E535D
S113977033D8BA980824CB3BFC71A3F45568CFA91D
S1139780196C5D4C0492E51DFEB851FA2AB4E7D475
S1139790AF427B4ECD60EB6222902CEFF0C78DD2AE
S11397A057A13DA766B0753111489677F8E346E9AD
S11397B0ABD09E5333D8BA980824CB3BFC71A3F4A6
S11397C0980824CB3BFC71A3F45568CFA9196C5DB0
S11397D04C0492E51DFEB851FA2AB4E7D40CB62E17
S11397E02602C9F20E7FDC287D15DA736A065B1740
S11397F051FA2AB4E7D40CB62E2602C9F20E7FDC45
S1139800287D15DA736A065B1713816479873F6EC6
S113981094BE0AED393583AD8B8940B2BCC31F3782
S11398200AED393583AD8B8940B2BCC31F374A5F1B
S113983085F69C9AC1D6C5442059DEE18F1BA5AF9D
S1139840427B4ECD60EB6222902CEFF0C78DD25755
S1139850C31F374A5F85F69C9AC1D6C5442059DE9A
S1139860E18F1BA5AF427B4ECD60EB6222902CEFC3
S1139870F0C78DD257A13DA766B0753111489677D0
S1139880BCC31F374A5F85F69C9AC1D6C54420598C
S1139890DEE18F1BA5AF427B4ECD60EB6222902CA4
S11398A0EFF0C78DD257A13DA766B0753111489628
S11398B0753111489677F8E346E9ABD09E5333D817
S11398C0BA980824CB3BFC71A3F45568CFA9196C52
S11398D05D4C0492E51DFEB851FA2AB4E7D40CB6E7
S11398E02E2602C9F20E7FDC287D15DA736A065B28
S11398F01713816479873F6E94BE0AED393583ADC1
S11399008B8940B2BCC31F374A5F85F69C9AC1D687
S1139910E7D40CB62E2602C9F20E7FDC287D15DAB8
S1139920736A065B1713816479873F6E94BE0AEDF0
S1139930393583AD8B8940B2BCC31F374A5F85F686
S113994060EB6222902CEFF0C78DD257A13DA76641
S1139950B0753111489677F8E346E9ABD09E53339E
S1139960D8BA980824CB3BFC71A3F45568CFA91945
S1139970A9196C5D4C0492E51DFEB851FA2AB4E7AE
S1139980D40CB62E2602C9F20E7FDC287D15DA73BC
S11399906A065B1713816479873F6E94BE0AED39BA
S11399A0F20E7FDC287D15DA736A065B1713816477
S11399B079873F6E94BE0AED393583AD8B8940B209
S11399C0BCC31F374A5F85F69C9AC1D6C54420594B
S11399D03BFC71A3F45568CFA9196C5D4C0492E566
S11399E01DFEB851FA2AB4E7D40CB62E2602C9F2E9
S11399F00E7FDC287D15DA736A065B1713816479A0
S1139A00442059DEE18F1BA5AF427B4ECD60EB6253
S1139A1022902CEFF0C78DD257A13DA766B07531C7
S1139A2011489677F8E346E9ABD09E5333D8BA98F9
S1139A308DD257A13DA766B0753111489677F8E3EA
S1139A4046E9ABD09E5333D8BA980824CB3BFC717B
S1139A50A3F45568CFA9196C5D4C0492E51DFEB8BA
S1139A60D6C5442059DEE18F1BA5AF427B4ECD60A5
S1139A70EB6222902CEFF0C78DD257A13DA766B0C0
S1139A80753111489677F8E346E9ABD09E5333D845
S1139A901F374A5F85F69C9AC1D6C5442059DEE13A
S1139AA08F1BA5AF427B4ECD60EB6222902CEFF072
S1139AB0C78DD257A13DA766B0753111489677F886
S1139AC0000113191C0F1F100E211A1B2214080564
S1139AD0071823020D1E201D11030A0B0417150677
S1139AE016090C122400000001000000010000000F
S1139AF001000000010000000009FFFFFFFFFFFF5D
S1139B00020105FFFFFF6C0985099E096769742D31
S1139B10316565383433342A000002010300010042
S1139B20030100020100010103020404030204040E
S1139B3003040303027B38616334376138382D63CF
S1139B406332362D346161392D383837622D343221
S1139B50636138636630376136337D0068097209A2
S1139B607709A509D97E0000F97E00000182000072
S1139B7051800000D57E0000D57E0000D57E000017
S1139B80F17E0000F97E000021810000D57E0000F6
S1139B90D57E0000D57E0000D97E0000F97E00004D
S1139BA09D8100009D800000AD7F0000BD8000000D
S1139BB0F11FFF1F28000000000104000100000045
S1139BC000000000000157494E55534200000000B8
S1139BD0000000000000000000000000F8B500BF15
S1139BE0F8BC08BC9E46704715420000F1400000D6
S1139BF0F8B500BFF8BC08BC9E467047CD400000D5
S1139C00000000000C03001074030010DC030010BB
S1139C100000000000000000000000000000000040
S1139C200000000000000000000000000000000030
S1139C300000000048920000000000000000000046
S1139C400000000000000000000000000000000010
S1139C500000000000000000000000000000000000
S1139C6000000000000000000000000000000000F0
S1139C7000000000000000000000000000000000E0
S1139C8000000000000000000000000000000000D0
S1139C9000000000000000000000000000000000C0
S1139CA000000000000000000100000000000000AF
S1139CB00E33CDAB34126DE6ECDE05000B00000074
S1139CC00000000000000000000000000000000090
S1139CD00000000000000000000000000000000080
S1139CE00000000000000000000000000000000070
